:020000040800F2
:1000000000000220791E0008D11D0008D51D00083F
:10001000D91D0008DD1D0008E11D000800000000DA
:10002000000000000000000000000000E51D0008C6
:10003000E91D000800000000ED1D0008F11D00088A
:10004000C91E0008C91E0008C91E0008C91E0008F4
:10005000C91E0008C91E0008C91E0008C91E0008E4
:10006000C91E0008C91E0008C91E0008F51D0008A9
:10007000C91E0008F91D0008C91E0008FD1D000862
:10008000C91E0008C91E0008C91E0008C91E0008B4
:10009000C91E0008C91E0008C91E0008C91E0008A4
:1000A000C91E0008C91E0008C91E0008C91E000894
:1000B000011E0008C91E0008C91E0008C91E00084C
:1000C000C91E0008C91E0008C91E0008C91E000874
:1000D000C91E00080D1E0008C91E0008C91E000820
:1000E000C91E0008C91E0008C91E0008C91E000854
:1000F000191E0008C91E0008C91E0008251E000898
:10010000C91E0008C91E0008311E0008C91E0008CB
:10011000C91E0008C91E00083D1E0008591E00081F
:10012000C91E0008C91E0008C91E0008C91E000813
:10013000C91E0008C91E0008C91E0008C91E000803
:10014000C91E0008C91E0008C91E000800000000E2
:10015000000000000000000000000000000000009F
:10016000000000000000000000000000C91E0008A0
:10017000C91E0008C91E0008C91E0008C91E0008C3
:10018000C91E0008C91E0008C91E0008C91E0008B3
:10019000C91E0008C91E0008C91E0008C91E0008A3
:1001A000C91E0008C91E0008C91E0008C91E000893
:1001B000C91E0008C91E0008C91E0008C91E000883
:1001C000C91E0008C91E0008C91E0008C91E000873
:0801D000C91E0008C91E000849
:1001D80010B5054C237833B9044B13B10448AFF379
:1001E80000800123237010BD1404002000000000CB
:1001F8009857000808B5034B1BB103490348AFF3F0
:10020800008008BD0000000018040020985700086E
:1002180081F0004102E000BF83F0004330B54FEAAF
:1002280041044FEA430594EA050F08BF90EA020F1C
:100238001FBF54EA000C55EA020C7FEA645C7FEAAF
:10024800655C00F0E2804FEA5454D4EB5555B8BFD2
:100258006D420CDD2C4480EA020281EA030382EA43
:10026800000083EA010180EA020281EA0303362DD5
:1002780088BF30BD11F0004F4FEA01314FF4801CA8
:100288004CEA113102D0404261EB410113F0004FBA
:100298004FEA03334CEA133302D0524263EB430371
:1002A80094EA050F00F0A780A4F10104D5F1200E0F
:1002B8000DDB02FA0EFC22FA05F2801841F100016A
:1002C80003FA0EF2801843FA05F359410EE0A5F13E
:1002D80020050EF1200E012A03FA0EFC28BF4CF06F
:1002E800020C43FA05F3C01851EBE37101F0004525
:1002F80007D54FF0000EDCF1000C7EEB00006EEB32
:100308000101B1F5801F1BD3B1F5001F0CD34908BB
:100318005FEA30004FEA3C0C04F101044FEA445212
:1003280012F5800F80F09A80BCF1004F08BF5FEA99
:10033800500C50F1000041EB045141EA050130BD79
:100348005FEA4C0C404141EB0101013C28BFB1F58B
:10035800801FE9D291F0000F04BF01460020B1FAD6
:1003680081F308BF2033A3F10B03B3F120020CDAA9
:100378000C3208DD02F1140CC2F10C0201FA0CF087
:1003880021FA02F10CE002F11402D8BFC2F1200CEC
:1003980001FA02F120FA0CFCDCBF41EA0C019040A2
:1003A800E41AA2BF01EB0451294330BD6FEA0404EB
:1003B8001F3C1CDA0C340EDC04F11404C4F12002D6
:1003C80020FA04F001FA02F340EA030021FA04F3E8
:1003D80045EA030130BDC4F10C04C4F1200220FA3F
:1003E80002F001FA04F340EA0300294630BD21FA7D
:1003F80004F0294630BD94F0000F83F4801306BF43
:1004080081F480110134013D4EE77FEA645C18BF36
:100418007FEA655C29D094EA050F08BF90EA020FCD
:1004280005D054EA000C04BF1946104630BD91EAC5
:10043800030F1EBF0021002030BD5FEA545C05D1C8
:100448004000494128BF41F0004130BD14F5800407
:100458003CBF01F5801130BD01F0004545F0FE417B
:1004680041F470014FF0000030BD7FEA645C1ABFB0
:10047800194610467FEA655C1CBF0B46024650EAE7
:10048800013406BF52EA033591EA030F41F4002113
:1004980030BD00BF90F0000F04BF0021704730B599
:1004A8004FF4806404F132044FF000054FF000016E
:1004B80050E700BF90F0000F04BF0021704730B52F
:1004C8004FF4806404F1320410F0004548BF404204
:1004D8004FF000013EE700BF42004FEAE2014FEA59
:1004E80031014FEA02701FBF12F07F4393F07F4F34
:1004F80081F06051704732F07F4208BF704793F037
:100508007F4F04BF41F40021704730B54FF4607449
:1005180001F0004521F000411CE700BF50EA01024C
:1005280008BF704730B54FF000050AE050EA0102F5
:1005380008BF704730B511F0004502D5404261EB65
:1005480041014FF4806404F132045FEA915C3FF4A6
:10055800D8AE4FF003025FEADC0C18BF03325FEA43
:10056800DC0C18BF033202EBDC02C2F1200300FAF4
:1005780003FC20FA02F001FA03FE40EA0E0021FA19
:1005880002F11444BDE600BF70B54FF0FF0C4CF407
:10059800E06C1CEA11541DBF1CEA135594EA0C0FB9
:1005A80095EA0C0F00F0DEF82C4481EA030621EAF4
:1005B8004C5123EA4C5350EA013518BF52EA03352F
:1005C80041F4801143F4801338D0A0FB02CE4FF0E1
:1005D8000005E1FB02E506F00042E0FB03E54FF011
:1005E8000006E1FB03569CF0000F18BF4EF0010E09
:1005F800A4F1FF04B6F5007F64F5407404D25FEA05
:100608004E0E6D4146EB060642EAC62141EA5551B7
:100618004FEAC52040EA5E504FEACE2EB4F1FD0CF9
:1006280088BFBCF5E06F1ED8BEF1004F08BF5FEA77
:10063800500E50F1000041EB045170BD06F0004629
:1006480046EA010140EA020081EA0301B4EB5C04D6
:10065800C2BFD4EB0C0541EA045170BD41F48011CE
:100668004FF0000E013C00F3AB8014F1360FDEBFF3
:10067800002001F0004170BDC4F10004203C35DACF
:100688000C341BDC04F11404C4F1200500FA05F352
:1006980020FA04F001FA05F240EA020001F00042F3
:1006A80021F0004110EBD37021FA04F642EB060169
:1006B8005EEA430E08BF20EAD37070BDC4F10C0493
:1006C800C4F1200500FA04F320FA05F001FA04F257
:1006D80040EA020001F0004110EBD37041F1000143
:1006E8005EEA430E08BF20EAD37070BDC4F120054E
:1006F80000FA05F24EEA020E20FA04F301FA05F2B6
:1007080043EA020321FA04F001F0004121FA04F25D
:1007180020EA020000EBD3705EEA430E08BF20EA2D
:10072800D37070BD94F0000F0FD101F00046400067
:1007380041EB010111F4801F08BF013CF7D041EAE9
:10074800060195F0000F18BF704703F000465200ED
:1007580043EB030313F4801F08BF013DF7D043EABE
:100768000603704794EA0C0F0CEA135518BF95EA74
:100778000C0F0CD050EA410618BF52EA4306D1D1FB
:1007880081EA030101F000414FF0000070BD50EA1A
:10079800410606BF1046194652EA430619D094EAA4
:1007A8000C0F02D150EA013613D195EA0C0F05D18E
:1007B80052EA03361CBF104619460AD181EA0301E2
:1007C80001F0004141F0FE4141F470014FF000009A
:1007D80070BD41F0FE4141F4780170BD70B54FF035
:1007E800FF0C4CF4E06C1CEA11541DBF1CEA1355B5
:1007F80094EA0C0F95EA0C0F00F0A7F8A4EB050497
:1008080081EA030E52EA03354FEA013100F088808D
:100818004FEA03334FF0805545EA131343EA126356
:100828004FEA022245EA111545EA10654FEA00260B
:100838000EF000419D4208BF964244F1FD0404F5C4
:10084800407402D25B084FEA3202B61A65EB030520
:100858005B084FEA32024FF480104FF4002CB6EBDD
:10086800020E75EB030E22BFB61A754640EA0C005D
:100878005B084FEA3202B6EB020E75EB030E22BF9D
:10088800B61A754640EA5C005B084FEA3202B6EBDE
:10089800020E75EB030E22BFB61A754640EA9C009D
:1008A8005B084FEA3202B6EB020E75EB030E22BF6D
:1008B800B61A754640EADC0055EA060E18D04FEA2B
:1008C800051545EA16754FEA06164FEAC30343EACB
:1008D80052734FEAC2025FEA1C1CC0D111F4801F98
:1008E8000BD141EA00014FF000004FF0004CB6E791
:1008F80011F4801F04BF01430020B4F1FD0C88BF30
:10090800BCF5E06F3FF6AFAEB5EB030C04BFB6EB3A
:10091800020C5FEA500C50F1000041EB045170BD2D
:100928000EF0004E4EEA113114EB5C04C2BFD4EB5A
:100938000C0541EA045170BD41F480114FF0000EDE
:10094800013C90E645EA060E8DE60CEA135594EA5A
:100958000C0F08BF95EA0C0F3FF43BAF94EA0C0F5D
:100968000AD150EA01347FF434AF95EA0C0F7FF4D2
:1009780025AF104619462CE795EA0C0F06D152EA26
:1009880003353FF4FDAE1046194622E750EA41060A
:1009980018BF52EA43067FF4C5AE50EA41047FF41B
:1009A8000DAF52EA43057FF4EBAE12E74FF0FF3C80
:1009B80006E000BF4FF0010C02E000BF4FF0010C51
:1009C8004DF804CD4FEA410C7FEA6C5C4FEA430CCA
:1009D80018BF7FEA6C5C1BD001B050EA410C0CBF19
:1009E80052EA430C91EA030F02BF90EA020F00207B
:1009F800704710F1000F91EA030F58BF994208BFE2
:100A080090422CBFD8176FEAE37040F0010070479E
:100A18004FEA410C7FEA6C5C02D150EA013C07D1F5
:100A28004FEA430C7FEA6C5CD6D152EA033CD3D040
:100A38005DF8040B704700BF8446104662468C463A
:100A48001946634600E000BF01B5FFF7B7FF00286D
:100A580048BF10F1000F01BD4DF808EDFFF7F4FF96
:100A68000CBF012000205DF808FB00BF4DF808ED21
:100A7800FFF7EAFF34BF012000205DF808FB00BF44
:100A88004DF808EDFFF7E0FF94BF012000205DF866
:100A980008FB00BF4DF808EDFFF7CEFF94BF01201B
:100AA80000205DF808FB00BF4DF808EDFFF7C4FF14
:100AB80034BF012000205DF808FB00BF4FEA410267
:100AC800B2F1E04324BFB3F5001CDCF1FE5C0DD9A4
:100AD80001F0004C4FEAC0024CEA5070B2F1004FEE
:100AE80040EB830008BF20F00100704711F0804FF1
:100AF80021D113F13872BCBF01F00040704741F4B6
:100B080080114FEA5252C2F11802C2F1200C10FAB9
:100B18000CF320FA02F018BF40F001004FEAC1239D
:100B28004FEAD32303FA0CFC40EA0C0023FA02F341
:100B38004FEA4303CCE77FEA625307D150EA013317
:100B48001EBF4FF0FE4040F44000704701F00040E7
:100B580040F0FE4040F40000704700BF53B94AB966
:100B6800002908BF00281CBF4FF0FF314FF0FF30AD
:100B780000F06EB9ADF1080C6DE904CE00F006F88E
:100B8800DDF804E0DDE9022304B070472DE9F04701
:100B9800089D04468C46002B40F083808A42174605
:100BA80047D9B2FA82F242B1C2F1200024FA00F029
:100BB8009140974040EA010C94404FEA1748230CB3
:100BC800BCFBF8F61FFA87FE08FB16C143EA01438F
:100BD80006FB0EF1994209D9FB1806F1FF3080F0A7
:100BE8001981994240F21681023E3B445B1AA4B235
:100BF800B3FBF8F008FB103344EA034400FB0EFE95
:100C0800A64509D93C1900F1FF3380F00581A645B6
:100C180040F2028102383C4440EA0640A4EB0E044C
:100C280000261DB1D4400023C5E900433146BDE884
:100C3800F08702B9FFDEB2FA82F2002A50D1CB1B4C
:100C48004FEA174E1FFA87F80126B3FBFEFC210C6A
:100C58000EFB1C3341EA034108FB0CF38B4207D916
:100C680079180CF1FF3002D28B4200F2E9808446F9
:100C7800C91AA3B2B1FBFEF00EFB101143EA0144FE
:100C880008FB00F8A04507D93C1900F1FF3302D250
:100C9800A04500F2D9801846A4EB080440EA0C40AD
:100CA800BFE78B4209D9002D00F0B1800026C5E9C5
:100CB800000130463146BDE8F087B3FA83F6002ECE
:100CC8004AD18B4202D3824200F2B880841A61EB87
:100CD800030101208C46002DA8D0C5E9004CA5E7EA
:100CE800C2F1200320FA03F6974001FA02F04FEA16
:100CF800174ED9403043030CB1FBFEF61FFA87F8B4
:100D08000EFB161143EA014306FB08F1994204FA67
:100D180002F409D9FB1806F1FF3C80F08D80994256
:100D280040F28A80023E3B445B1A81B2B3FBFEF07C
:100D38000EFB103341EA034100FB08F38B4207D94D
:100D4800791800F1FF3C73D28B4271D902383944CB
:100D5800CB1A40EA064678E7C6F1200C03FA06F4F7
:100D680022FA0CF31C4320FA0CF701FA06F34FEAB7
:100D7800144E21FA0CF11F433B0CB1FBFEF91FFA8C
:100D880084F80EFB191143EA014109FB08FA8A4568
:100D980002FA06F200FA06F308D9611809F1FF30E1
:100DA80048D28A4546D9A9F102092144A1EB0A0192
:100DB800BFB2B1FBFEF00EFB101147EA014700FB82
:100DC80008F8B84507D9E71900F1FF312ED2B84520
:100DD8002CD90238274440EA0940A7EB0807A0FBB2
:100DE80002894F45C64649461AD317D05DB1B3EBC1
:100DF8000E0267EB010707FA0CFCF2404CEA02020C
:100E0800F740C5E9002700263146BDE8F0872E46A1
:100E180028460BE70646E9E61846FDE64345E5D2CF
:100E2800B8EB020E69EB04010138DFE70846D2E7A8
:100E380060468DE78146B9E7664675E730464AE77A
:100E4800ACF1020C394413E702383C4424E700BFF4
:100E5800704700BF000000002DE9F047BD4B2DEDA5
:100E6800048B9842A0B000F09D80BB4B98420BD0F9
:100E7800BA4B98424FD0BA4B984200F0C08020B08D
:100E8800BDEC048BBDE8F087B64AB74B117E1C68F1
:100E9800537D34F811501179507892ED097AD2EDDA
:100EA800046A92ED0E6A03FB05F307EE903A34F8F4
:100EB800113092F82C50F8EEE77A00FB03F067EE59
:100EC800877A07EE100A34F8155092F82930A74CA3
:100ED800A748B8EEC77A03FB05F3E7EE267A013197
:100EE800C9B207EE103AB8EEC77AD4ED006AE7EE59
:100EF800067A802967EEA67AFCEEE77A17EE903A32
:100F08009BB283600ABF00231171137120B0BDEC3E
:100F1800048BBDE8F087934A934B117E1868537D84
:100F280030F811501479D2ED095A30F81440D2ED46
:100F3800046A92ED0E6A03FB05F307EE903A5378C4
:100F480003FB04F392F82C4007EE103AF8EEE77A28
:100F580030F8140092F82930844C67EEA57AB8EE80
:100F6800C77A03FB00F3E7EE267A0131C9B207EE30
:100F7800103AB8EEC77AD4ED006A7D48E7EE067AF3
:100F8800802967EEA67AFCEEE77A17EE903A9BB2D4
:100F980083600ABF00231176137620B0BDEC048B62
:100FA800BDE8F0877348744C01F068FE714801F0A1
:100FB800ADF903466F48238001F01EFF2388B3F57F
:100FC800806F65D2684B6D4A1A606D4C6D4800237E
:100FD80006254FF003084FF07F0918A904260027BB
:100FE800CDE91845CDE91A89CDE91C671F931E93F1
:100FF80001F0ECFA0546002858D072B6FEE7594AC7
:10100800594B117E1868147930F81150537D30F817
:1010180014405178D2ED095AD2ED046A92ED0E6A65
:1010280003FB05F307EE903A01FB04F307EE103AD1
:1010380092F82C3092F8291030F813004B4CF8EE47
:10104800E77AB8EEC77A67EEA57A01FB00F1E7EE1A
:10105800267A01334648D4ED006A07EE101AB8EE36
:10106800C77AD9B2E7EE067A802967EEA67AFCEE4F
:10107800E77A17EE903A9BB283600ABF002382F8A2
:101088002C1082F82C3020B0BDEC048BBDE8F08722
:10109800A3F58062B2F5806F2BD3A3F50062B2F599
:1010A800806F4CD2304B384A1A608EE73548374C3F
:1010B80001F0E4FD4FF0FF31324801F085F8314886
:1010C80001F024F903462F48238001F095FE304AA9
:1010D8002C48062310A9CDE91655CDE91289CDE98A
:1010E8001467CDE9102301F071FA054628B172B6EC
:1010F800FEE71D4B274A1A6067E7224801F0BEFD4C
:101108004FF0FF311F4801F05FF81E4801F0FEF86C
:1011180003461C48638001F06FFE1F4A19480623E6
:1011280008A9CDE90E55CDE90A89CDE90C67CDE9C5
:10113800082301F04BFA054690B372B6FEE7A3F513
:101148004063B3F5806FBFF440AF074B134A1A6092
:101158003BE700BFDC06002090060020280700209F
:101168003404002054060020000000200400002061
:10117800000800505005002030040020080100201D
:1011880002003004E4040020080000204C0600207F
:1011980004006008080300200800900C08020020E2
:1011A800BB4801F06BFD4FF0FF31B94801F00CF876
:1011B800B74801F0ABF80346B548A38001F01CFE20
:1011C800B44AB34806236946CDE90655CDE90289F4
:1011D800CDE90467CDE9002301F0F8F908B172B64A
:1011E800FEE7AB48AC4D01F049FD4FF0FF31A84890
:1011F80000F0EAFFA64801F089F80346A448E38016
:1012080001F0FAFDA088FFF755F99FA3D3E9002361
:10121800FFF7BAF9E3880646D8080F46FFF74AF9F8
:1012280002460B4630463946FFF7D8FAFFF746FC28
:1012380039460346304609EE103AFFF73FFC82462E
:101248006088C008FFF736F98FA3D3E900238046EA
:101258008946FFF799F9914B0022FEF7DDFF4246D8
:101268004B46FFF7BBFAFFF729FC03462088C00866
:1012780008EE103AFFF71EF90B4602468749002090
:10128800FFF7ACFAFFF71AFC2B7B08EE900A032B4A
:1012980013D8DFE803F0A8B7A102D5ED047A85EDED
:1012A800029AF5EEC07AF1EE10FA4FF0000240F221
:1012B800D68077EEC97AC5ED047A95F82030032BED
:1012C80013D8DFE803F0705B8102D5ED097A85ED6C
:1012D800079AF5EEC07AF1EE10FA4FF0000240F2EC
:1012E800A58077EEC97AC5ED097A95F83430032BD5
:1012F8003FF6C5ADDFE803F0311C1302D5ED0E7AD9
:1013080085ED0C9AF5EEC07AF1EE10FA4FF0000276
:1013180040F29B8077EEC97AC5ED0E7AAFE595F875
:10132800283013B9032385F83430C5F838A0A6E56A
:10133800D5ED0E8A85ED0C8A18EE900AFFF7CCF8E9
:1013480032463B46FFF79CFB002800F091800223C1
:10135800C5F838A085F8343091E5D5ED0E7AC5ED9D
:101368000C8AB7EE007AF4EEC77AF1EE10FA61DB78
:10137800012385ED0E7A85F8343080E5D5ED099A9C
:1013880085ED078A19EE900AFFF7A6F802460B4684
:1013980030463946FFF77EFB002850D178EE299A6F
:1013A800C5ED099AA1E7D5ED097AC5ED078AB7EE2B
:1013B800007AF4EEC77AF1EE10FA54DB012385EDDA
:1013C800097A85F8203090E72B7D13B9032385F837
:1013D8002030C5F824A088E72B780BB903232B739A
:1013E800C5F810A069E7D5ED047AA860B7EE007AD1
:1013F800F4EEC77AF1EE10FA2CDB012385ED047ABE
:101408002B735AE7D5ED049A85ED028A19EE900AF6
:10141800FFF762F802460B4630463946FFF73AFBBB
:1014280058BB78EE299AC5ED049A46E700236A620C
:101438006B755AE778EEA78AC5ED0E8A1FE5022379
:10144800C5F824A085F820304FE70023AA6385F863
:10145800293014E578EEA77AC5ED047A2DE7002344
:101468002A616B7029E778EEA77AC5ED097A3CE71F
:1014780038EE288A85ED0E8A01E50223C5F810A00A
:101488002B731AE7AFF3008074479CA1FAFF2F3F34
:10149800E40400201000C010540600200000F03FB3
:1014A800F8B55D480378902B45D0802B22D15B4C52
:1014B8002278002A43D04678594D8078594F5A49A6
:1014C800A870701C2B7037F8103048886E709842DE
:1014D80003D1013A0020D2B20870C88A984203D1D9
:1014E800013A0020D2B20875488D984200F08D80EC
:1014F800227002E0494B4C491A784B784C7D91F8A0
:10150800290023440344022B4AD0032B2BD0012B60
:101518001DD0464B4FF07E51196092B144480122CC
:101528004FF4006102F0DCF8BDE8F8403A49414860
:10153800032203F0C1B9394C2278022A44D93A4926
:10154800DBE73B484FF4006102F0CAF8ECE7498852
:10155800394C3648394BC901B3FBF1F33849013BE3
:10156800E3620160D9E74C88C88A334FB1F82AC0D2
:10157800324B344E344DE401C101B3FBF4F0013871
:10158800F862B3FBF1F129480139F1624FEACC1452
:101598004FF07E51B3FBF4F3013BEB620160BCE713
:1015A8004B88C88A244E2549264D204CDB01B1FBC7
:1015B800F3F3013BF362C0014FF07F53B1FBF0F14D
:1015C8000139E9622360A8E7467887781649DFF889
:1015D80054C0701C02EB820501323CF810C0D2B234
:1015E80001EB850022704FF0000E40F20114C0F8A4
:1015F80010E021F825400A4CA0F802C000256670CA
:101608002370A7700573057177E7013A0023D2B2FA
:1016180081F82830227070E7740700203204002017
:10162800E0040020B0570008540600200400002001
:1016380000040048BC0500200010004080FE210A7C
:1016480000004040001400400034014030B5002143
:10165800ABB00C46382206A804F092F82146542272
:1016680014A8CDE90044CDE90244049404F088F8B4
:10167800204602F03BF8042402234FF480754021F1
:10168800552206A8CDE90D33CDE91133CDE909512D
:10169800CDE90F420693139302F0AEF808B172B683
:1016A800FEE70346214603250F2404930022002366
:1016B8006846CDE90045CDE9022302F021FB08B1D7
:1016C80072B6FEE7084C00254FF000524FF0004379
:1016D80014A8CDE91445CDE9252302F04DFC08B145
:1016E80072B6FEE72BB030BD0180010080B5002442
:1016F80092B000F00DFCFFF7A9FFA84BA84A1C8088
:10170800CDE90644CDE908440A94D16C1C71002542
:1017180041F001011D61D164D16C9C8201F001018D
:1017280000910099D16C1C7641F00201D164D26C11
:101738009C485D6202F0020201929D631C8522466C
:101748004FF4006183F82C40019E974D01F0C8FFCB
:10175800002601234FF40062924806A90027CDE92C
:101768000623CDE9086701F0C7FE214606A8302206
:1017780004F006F88D4B2B60284601F0DFFC08B119
:1017880072B6FEE70246022328460424002506A96D
:101798000693CDE90867CDE90A67CDE90C45ADF8B0
:1017A8001C2001F04BFD0346B0B9814C8149A06073
:1017B80047F6122220460427C4E90012C4E903337D
:1017C800C4E90633C4E90833A362676103F03CFD4A
:1017D800014618B172B6FEE772B6FEE7204603F07E
:1017E8002FFF014608B172B6FEE7204603F066FFF8
:1017F80008B172B6FEE7204603F004FF034608B1BD
:1018080072B6FEE76C4C06904FF480784FF0A04219
:1018180020464FF440390126A4F81C80CDE907334F
:10182800C4E90233C4E90433C4E90B3384F824302F
:1018380084F83830E36384F84030C4E90029A761AC
:10184800266200F099FB034608B172B6FEE720460F
:1018580006A9069301F04CFB054608B172B6FEE7EF
:10186800564C02900146202206A8CDE9035503F004
:1018780087FF534BA4F81C8020462360C4E9025517
:10188800C4E90455C4E90B55C4F80490A76126625D
:1018980084F8245084F83860E56384F8405000F0F8
:1018A8006BFB034608B172B6FEE7204602A9029315
:1018B80001F01EFB08B172B6FEE7424A3F48062314
:1018C800CDE9062300227F23CDE9082306A90422B7
:1018D8000023CDE90A2300F079FE08B172B6FEE7CD
:1018E800394C0690CDE90700CDE902004FF0804160
:1018F800632209900490A0602061A06144F26723EC
:10190800204621606260E36002F0BEFC08B172B656
:10191800FEE74FF4805506A92046069502F08EFD95
:10192800034608B172B6FEE72046202702A90493B1
:10193800029702F04FFF034608B172B6FEE7234C48
:10194800234A06904FF6FF762046CDE90733C4E9CF
:101958000133A3612260E66002F096FC034608B1F9
:1019680072B6FEE7204606A90893069702F032FFF2
:10197800034608B172B6FEE7164C174A0690204691
:10198800CDE90733C4E90133A361E660226002F0C0
:101998007BFC034610B372B6FEE700BF5406002076
:1019A8000010024000040048800400200008005095
:1019B800BC05002000380140E40400205005002048
:1019C8000004005002003004DC06002090060020CD
:1019D800001000402807002000140040204606A9F7
:1019E8000893069702F0F6FE034608B172B6FEE7C2
:1019F800244C254A0490CDE90600CDE90800CDE93C
:101A08000200C4E901002046C4E90433E660A3618A
:101A1800226002F039FC08B172B6FEE706A920463A
:101A2800069502F00BFD08B172B6FEE720220023EE
:101A380000241448049402A9CDE9022302F0CAFE46
:101A4800044608B172B6FEE77F21104801F0F8F9A4
:101A58007F210F4801F0F4F921460E4801F084FB7C
:101A68000D4802F0A9FC0D4802F0A6FC0C4802F053
:101A7800A3FC044802F0A0FC0A490B48032202F028
:101A88001BFFFEE73404002000340140E40400207A
:101A98005005002080040020DC060020900600206D
:101AA8002807002074070020BC0500200B4B1A6E85
:101AB80042F001021A661A6E82B002F00102009228
:101AC800009A9A6D42F080529A659B6D03F080539C
:101AD8000193019B02B001F087BE00BF00100240D5
:101AE80030B503688BB00024B3F1A04FCDE90444AE
:101AF800CDE90644089404D0264A934223D00BB07B
:101B080030BD03F1704303F5043304A9DA6C42F4E1
:101B18000052DA64DA6C02F400520092009ADA6C2D
:101B280042F00102DA64DB6C069403F001030193CE
:101B38000F2203234FF09040CDE90423019C01F0CC
:101B4800DBFC0BB030BD144B1448DA6C42F4804215
:101B5800DA64DA6C02F480420292029ADA6C42F099
:101B68000202DA64DB6C069403F00203039304A90F
:101B780003230222CDE90423039D01F0BDFC224684
:101B880021462F2001F07AFA2F2001F0AFFA0BB08E
:101B980030BD00BF0004005000100240000400489F
:101BA80030B502681A4B89B000249A42CDE9024444
:101BB800CDE90444069401D009B030BD03F1704367
:101BC80003F5023302A9DA6C42F48032DA64DA6C83
:101BD80002F480320092009ADA6C42F00102DA6470
:101BE800DB6C049403F001030193102203234FF0EC
:101BF8009040CDE90223019D01F07EFC224621465A
:101C0800362001F03BFA362001F070FA09B030BDF9
:101C18000008005000B50368B3F1804F87B023D0A7
:101C28003A4A934236D03A4A934248D0394A934284
:101C380005D0394A934257D007B05DF804FB374BBB
:101C48009A6D42F020029A659B6D002203F02003F2
:101C5800049337201146049B01F010FA372007B08F
:101C68005DF804EB01F042BA03F504331C209A6DC9
:101C780042F001029A659B6D002203F00103019373
:101C88001146019B01F0FAF91C2007B05DF804EB3E
:101C980001F02CBA214B9A6D42F008029A659B6DAF
:101CA800002203F00803029311463220029B01F040
:101CB800E5F9322007B05DF804EB01F017BA174BCD
:101CC8009A6D42F010029A659B6D002203F0100392
:101CD800039311463620039B01F0D0F9362007B054
:101CE8005DF804EB01F002BA0C4B1A6E42F4005294
:101CF8001A661B6E002203F4005305932C2011462C
:101D0800059B01F0BBF92C20A9E700BF000C00409F
:101D18000010004000140040003401400010024050
:101D2800F0B50268264B8BB000249A42CDE90444F2
:101D3800CDE90644089401D00BB0F0BD03F5584333
:101D480000261A6E42F480421A661A6E02F4804225
:101D58000192019ADA6C42F00102DA64DA6C02F05C
:101D680001020292029ADA6C42F00202DA64DB6C37
:101D780003F00203039303984FF4806202230027C1
:101D8800072504A94FF09040CDE90423CDE9066763
:101D9800089501F0B1FB022304A9402209480895DF
:101DA800CDE90423CDE9066701F0A6FB22462146CA
:101DB800252001F063F9252001F098F90BB0F0BD5A
:101DC8000038014000040048FEE700BFFEE700BFFE
:101DD800FEE700BFFEE700BFFEE700BF704700BF99
:101DE800704700BF704700BF00F0A2B8704700BF3F
:101DF800704700BF704700BF014802F0F1BB00BF49
:101E0800DC060020014802F011BE00BFBC0500201E
:101E1800014802F0E5BB00BF34040020014800F08F
:101E28007FBA00BF50050020014802F0D9BB00BFAF
:101E38009404002008B5044802F0D2FBBDE808402D
:101E4800024801F0C7B900BF9006002080040020B6
:101E5800014802F0C5BB00BF28070020034AD2F89A
:101E6800883043F47003C2F88830704700ED00E012
:101E78000D4885460D480E490E4A002302E0D45805
:101E8800C4500433C4188C42F9D30B4A0B4C0023BA
:101E980001E013600432A242FBD3FFF7DFFF03F037
:101EA8004BFCFFF723FCFEE70000022000000020A7
:101EB80014040020E0580008140400207C070020C7
:101EC800FEE7000038B50F4B1B680BB9012038BD81
:101ED8000D494FF47A720546B2FBF3F30868B0FB7C
:101EE800F3F001F011F904460028EFD10F2DEDD8D9
:101EF800024629464FF0FF3001F0C0F8034B204658
:101F08001D6038BD0C0400200804002010040020C7
:101F180010B5032001F09EF80020FFF7D3FF10B1A1
:101F28000124204610BD0446FFF7C0FD204610BD21
:101F3800034A0449136809680B441360704700BFDB
:101F4800780700200C040020014B1868704700BF78
:101F58007807002038B50446FFF7F6FF631C0546EE
:101F680002D0044B1B681C44FFF7EEFF431BA3423F
:101F7800FAD338BD0C04002070B582B00023019359
:101F8800002800F0D680C56D0446002D00F09F8023
:101F980022689368990005D5936823F0204323F0BD
:101FA8003F0393609368DB0019D47F4B7F481B681D
:101FB80091689B09A0FB03039B0921F010410133A1
:101FC80021F03F015B0041F0805191600193019B3A
:101FD8002BB1019B013B0193019B002BF9D1936825
:101FE800DE0066D4E36D43F01003E365236E43F02F
:101FF80001032366936813F0040F4FF00100E36DAB
:102008005ED1DD065CD4E36D23F4817343F00203F3
:10201800E3659368D90719D4B2F1A04F00F0A18005
:10202800634B9A4200F0A680624D6349AD6803F5A0
:1020380080639B6889682B430B43DB0706D45F49A1
:102048008B68656823F47C132B438B60D4E90215F5
:10205800E36B2B430B43657F94F8241043EA453325
:10206800012943EA01435FD0E16A21B1256B01F4FC
:10207800787129430B43D6685149656B31400B434E
:10208800D360136923F040632B43136193685E07A1
:1020980023D593686369012B4ED0136B23F00F038C
:1020A8001363E36D23F0030343F00103E36502B018
:1020B80070BD936813F0040F4FF00000E36DA0D0DB
:1020C800E36D012043F01003E36502B070BDFFF734
:1020D80007FD256684F858505AE793681D07D9D438
:1020E800D16894F83830267F256921F480415B0057
:1020F80021F0020143EA86330B43D36013691DBB09
:1021080023F480331361D2F8C03023F47F5323F0D3
:102118003F03C2F8C03094F84030012B33D0136924
:1021280023F001031361B5E7A16A013943EA41438A
:102138009AE7012002B070BD116B236A21F00F01EC
:10214800013B0B431363ACE743F480331361D2F8CC
:10215800C03023F47F5323F03F032B43C2F8C03031
:10216800D9E71349936889680B43D9073FF56EAFE0
:10217800144965E74FF0A0439B6891680B43DB0760
:102188003FF564AFF4E7D4E911361169E56C21F441
:10219800FF6121F0040133430B43216D2B430B43B3
:1021A80043F00103136175E708040020632D3E0521
:1021B80000010050000400500006005000070050C5
:1021C8000740F0FF000300500368B3F1A04F2DE96A
:1021D800F04105460E466FD04848494A494983426E
:1021E80018BF0A46AC699768082C07F01F070AD081
:1021F800092F63D840F22122FA40D1075ED5DB6867
:10220800DA0769D40424FFF79FFE2A688046731C06
:102218002CD113681C42FCD0EB6D43F40073EB65C2
:10222800D36813F4406F0FD16B7F6BB9136818072D
:102238000AD5EB6D23F48073EB65EB6DD90403D4F9
:10224800EB6D43F00103EB652C4B9A4229D003F563
:1022580080639A424ED0082CD06829D010F4804070
:1022680006BF0C2313600020BDE8F08113682342E9
:10227800D2D1FFF769FEA0EB0800B0422A680AD95C
:1022880013682340C3D1EA6D85F8583042F0040240
:10229800EA650320E8E7002EB9D113682340B6D1D8
:1022A800F1E74FF0A041092F1DD9082CC868D5D1F6
:1022B80014600020BDE8F081114A93E7B3F1A04F04
:1022C8001AD00E480E4A0F4983420CBF13460B46DC
:1022D8009B6813F4604F95D0EB6D43F02003EB65DA
:1022E8000120BDE8F08140F2212323FA07F7FB071C
:1022F800DBD5B0E70449D6E7014BE9E70001005018
:102308000003005000070050000400500368186CD8
:10231800704700BF704700BF704700BF704700BFDD
:10232800F8B50368B3F1A04F1E685F68044600F073
:10233800D280A248A24AA349834208BF0A469568A8
:10234800B10705F01F0502D5BA0700F1B68070077E
:1023580040F18680790740F18380E26DD10603D48D
:10236800E26D42F40072E265DA6812F4406F21D13E
:10237800924A934200F0EC8002F58062934200F0AA
:102388000F81DA68900415D41A68110712D59A6873
:10239800520700F1FC805A6822F00C025A60E36D83
:1023A80023F48073E365E36DDB0403D4E36D43F04A
:1023B8000103E3652046FFF7ADFF23680C221A608E
:1023C800B00654D5B90652D5E26DD10603D4E26DF4
:1023D80042F40052E2657949DA6CD8688B4202F41B
:1023E800C07200F0BB8001F580618B4200F0C280B2
:1023F800D968D2B98A0100F1A3801A68500614D5A9
:10240800890212D49A68120700F1CE805A6822F025
:1024180060025A60E36D23F48053E365E36DD805E9
:1024280003D4E36D43F00103E365204600F056FD55
:10243800236860221A60310601D53A0659D4F0059E
:1024480001D5F90560D4B20501D5B80545D4F10622
:1024580001D5FA0610D4710501D57A0560D4F8BD06
:102468003207ADD538073FF578AFB006AAD4720663
:10247800E1D57806DFD5A7E7E26B7AB1002D7CD0ED
:10248800B3F1A04F00F08E804C484D4A4D4983422D
:1024980008BF0A46926812F4604F0BD0E36D43F40C
:1024A8008063E365236E43F0020323662046FFF74B
:1024B80035FF236810221A60CDE7E36DDB0603D4ED
:1024C800E36D43F40063E365204600F00FFD2368E5
:1024D80002221A603BE73B4A31E7E36D43F480236D
:1024E800E365204600F000FD23684FF400721A608F
:1024F800ADE7E36D43F48033E3652046FFF70CFF57
:10250800236880221A609AE7E36D43F40033E36599
:10251800204600F0E7FC23684FF480721A6092E7C7
:10252800E26D42F48042E265226E4FF4806142F02F
:102538000802226620461960BDE8F84000F0D0BCC9
:1025480000F4406001F4005202437FF46EAF54E798
:102558004FF0A041092D14D9CA6813E74FF0A04CD9
:10256800002D3FF445AFA91F01297FF641AFDCF8E4
:102578000C103EE7DFF850C0F2E7DA68D00799D5CB
:102588008CE740F22122EA40D207E5D5F9E6E36D6F
:1025980043F01003E365236E43F00103236609E764
:1025A8000949D7E7074A75E7E36D43F01003E36588
:1025B800236E43F00103236637E700BF0001005094
:1025C800000700500003005000040050F0B590F8D8
:1025D800582083B00346012A4FF00000019000F014
:1025E80050811A68012083F858009468660750D40F
:1025F800D1E90004A60902F1300506F00C0604F042
:102608001F0477594FF01F0C0CFA04FCC0F38460C8
:1026180027EA0C07A040384370519068450740F1FD
:10262800A580906808689468E4073BD50446C249C9
:102638000C422CD0B2F1A04F00F02181BF4DC0490F
:10264800C048AA4218BF01468868BF498C4200F0BA
:10265800E07500F01981BD498C4200F01581BC4934
:102668008C4240F04D81C00111D4B2F1A04F00F06E
:102678002C82B24CB249B348A2420CBF0A46024669
:10268800916821F0E0710D4345F080759560002058
:1026980003E0DA6D42F02002DA65002283F8582060
:1026A80003B0F0BDCE68AB4CD2F8B050DFF8B8C27A
:1026B80006F01807FC40C0F31207044025EA070596
:1026C8002C436645C2F8B0400446B0D1002F00F054
:1026D800048190FAA0F4002C00F09C81B4FA84F4F0
:1026E800013404F01F04092C40F2948190FAA0F5FB
:1026F800002D00F0F081B5FA85F50135AD0605F03D
:10270800F84590FAA0F4002C00F0E381B4FA84F4C0
:10271800013404F01F04012606FA04F4254390FA54
:10272800A0F0002800F0D381B0FA80F4013404F05E
:102738001F0404EB4404A4F11E00000540F00070DF
:102748002843C70D07F0040702F114058E687C5969
:10275800C0F304504FF0070C0CFA00FC24EA0C04F8
:1027680006FA00F0204378510C6860E7906810F092
:10277800080040F082808C680E68B4F1004F00F0C9
:10278800F7804FEAD65C0CF0040C02F11407C6F38C
:1027980004565CF807504FF0070E0EFA06FEB440D8
:1027A80025EA0E052C434CF80740546924F00044F0
:1027B8005461D1F810C0D668BCF1040F2ED002F1D4
:1027C8006004DFF8A8E154F82C500F6805EA0E0EF3
:1027D800C6F3C1064D69760007F0F847B54047EAE9
:1027E8000E073D4345F0004544F82C500F698E69AB
:1027F80054F8275025F08075354344F827500E6962
:102808000F7F54F82650012F25F0007508BF4FF0B0
:102818000070284344F82600086804E70868146E26
:10282800146EC0F31205C4F38464002D40F0B48024
:10283800C0F38465AC4200F01181546E566E02F10B
:102848006004C6F3846602F16407AE4200F02B818F
:10285800A668A66804F10807C6F38466AE4200F0CD
:102868001181E668E6680C34C6F38466B5427FF4E5
:10287800DAAE206820F0004020600868D3E63049CE
:10288800E2E6022003B0F0BD01023FF500AFB2F16D
:10289800A04F33D030498A427FF4F9AE29482F4AF5
:1028A8002F4C126881689209A4FB024292090132F6
:1028B80021F0E07102EB42020D43920045F400055D
:1028C80085600192019A002A3FF4E1AE019A013A2B
:1028D8000192019A002AF9D1D9E6800E441C04F02D
:1028E8001F06092E00F28880A506012405F0F84588
:1028F800B44006EB46002543000521E71048CEE723
:1029080018498C427FF4C3AE10F480007FF4BFAE48
:102918000A498A423FF4BBAE0A4C01F50071B2F194
:10292800A04F18BF21468A6822F0E0722A4342F479
:1029380080028A60B1E600BF0000088000010050F4
:102948000003005000070050000021C31000C09091
:10295800000052C7FFFF07000006005008040020CF
:10296800632D3E05000084CB00007F4000F0FF038C
:10297800F50D02F1140405F00405C6F304562F59A9
:102988004FF0070C0CFA06F627EA06062E51546992
:1029980044F0004454610CE790FAA0F51DB1B5FA73
:1029A80085F5AC425AD0546E566E02F16004C6F3F7
:1029B800846602F1640790FAA0F51DB1B5FA85F5B1
:1029C800AE4270D0A568A66804F10807C6F384660D
:1029D80090FAA0F51DB1B5FA85F5AE4252D0E5687A
:1029E800E6680C34C6F3846690FAA0F5002D3FF42F
:1029F8001AAEB5FA85F539E706EB4600A5061E3886
:102A0800012405F0F84504FA06F60005354340F0C0
:102A1800007095E690FAA0F5002D64D0B5FA85F51A
:102A28000135AD0605F0F84590FAA0F4002C58D011
:102A3800B4FA84F4013404F01F04012606FA04F4FD
:102A4800254390FAA0F0002848D0B0FA80F4013469
:102A580004F01F0404EB4404200571E6106E1446CC
:102A680020F0004044F8600F0868556E566EC0F3B9
:102A78001205C6F3846602F16407002D9BD1C0F3EA
:102A88008465E2E6386820F0004038600868E56848
:102A9800E668C0F31205C6F384660C34002DA3D192
:102AA800C0F38465E2E6386820F0004038600868C2
:102AB800A568A668C0F31205C6F3846604F1080782
:102AC800002D85D1C0F38465C8E6084AD8E50848D2
:102AD80036E6022422E64FF0806512E64FF44010F5
:102AE8002EE60224ACE74FF080659DE70003005016
:102AF800000050FE03689A68520770B5044625D551
:102B08009A68DA68960104D5A08B40F201129042C7
:102B180043D002299A681ED0520702D59A689607B0
:102B280063D5012953D09A6810070AD59A68920785
:102B380007D49A6822F0004222F03F0242F02002B5
:102B48009A60032914BF04250C2507E09A68160724
:102B5800D7D4002070BD10073BD40825FFF7F4F93F
:102B680023689B681D420646F3D0FFF7EDF9831BE7
:102B7800052B236802D99A682A4204D19B682B4204
:102B8800F3D10020E6E7E36D43F01003E365236E1D
:102B980043F001032366012070BD1A68550606D468
:102BA800164A01E0013AEED019684806FAD54022E3
:102BB8001A609A6851070AD59A68920707D49A68E2
:102BC80022F0004222F03F0242F010029A600425EF
:102BD800C4E79A689107C0D49A6822F0004222F0AC
:102BE8003F0242F020029A60B7E79A6822F000425A
:102BF80022F03F0242F010029A6092E7000040A3E0
:102C080003689A68D10701D5002070479968194A66
:102C1800114270B5064622D19A68174D2A4042F0F3
:102C280001029A60FFF790F933681A68D2070446E0
:102C380013D49A68D00704D49A682A4042F0010253
:102C48009A60FFF781F9031B022B336802D91A68CF
:102C5800D10704D51A68D207EBD5002070BDF36DF3
:102C680043F01003F365336E43F00103336601202C
:102C780070BD00BF3F000080C0FFFF7F0368B3F155
:102C8800A04F70B504464DD03A483B4A3B49834271
:102C980018BF0A4696689D6815F0040540D194F857
:102CA8005830012B3CD0012384F858302046FFF7D8
:102CB800A7FF002838D1E36D22682E4923F47063FA
:102CC80023F0010343F480738A4206F01F06E3658C
:102CD80045D02B4B9A4247D01146E36D23F480131D
:102CE800E365E36D13F480531CBF236E23F00603E2
:102CF80023661C2500238A42156084F858301CD0AE
:102D0800092E14D9E36D43F48013E365CB689B0166
:102D180005D5E36D23F4405343F48053E36570BD58
:102D2800022070BD144AB5E784F8585070BD40F2CF
:102D3800212323FA06F6F507E4D5D368990105D5CA
:102D4800E36D23F4405343F48053E365936823F021
:102D5800004323F03F0343F00403936070BD4FF03A
:102D6800A041002EBDD1B8E701F54071002EB8D1C1
:102D7800B3E700BF000100500003005000070050F7
:102D88000005005038B503689A68950702D59B6816
:102D9800002038BD9A68D4072CD59A6802F00D0235
:102DA800012A044609D0E36D43F01003E365236E5E
:102DB80043F001032366012038BD9A6822F00042DF
:102DC80022F03F02032142F002029A601960FFF7E5
:102DD800BBF823689B68D90705460BD5FFF7B4F8FD
:102DE800401B0228236802D99A68D207DBD49B6863
:102DF800DB07F3D4002038BD90F85830012B1DD0E4
:102E0800012310B5032180F858300446FFF772FEFD
:102E180018B1002384F8583010BD2046FFF7B2FFE0
:102E28000028F6D1E36D23F4885323F0010343F01F
:102E38000103E365002384F8583010BD0220704771
:102E480030B590F8583083B00022012B01923FD062
:102E5800012380F8583004460D46FFF793FFE36DD1
:102E6800E8B923F4885323F0020322681A4943F08F
:102E78000203E365936823F0404305F0804523F09F
:102E88003F032B4343F0004393609368002B0EDB12
:102E9800E36D23F0030343F00103E36502E043F02D
:102EA8001003E365002384F8583003B030BD019B5C
:102EB80001330193019B8B42E7D9E36D23F01203A1
:102EC80043F010030022E36584F858200120ECE762
:102ED800022003B030BD00BF01DE0400704700BF10
:102EE800704700BF704700BF704700BF704700BF02
:102EF800F0B490F858300E68012B9CB04DD00268A1
:102F080000240123B2F1A04F189480F85830199486
:102F18000CD04A4DAA423ED0C26D80F8584042F0CB
:102F28002002C26518461CB0F0BC7047444B9B6831
:102F38005B070CD59368C36D43F02003C365012379
:102F4800002280F8582018461CB0F0BC70479368DF
:102F58005C07F0D4B2F1A04F24D0394B9A4221D06B
:102F6800002E53D1374A354C9368374D374923F4EF
:102F780060439360A468AB68896823430B43DB43D1
:102F880003F001037BB3936823F4716323F00F0309
:102F980093600023D4E72C4BC9E7022318461CB0E2
:102FA800F0BC70470EB32A4A4D68936890F83840D1
:102FB80023F460432B4343EA443393604FF0A04229
:102FC8001F4B94689B682343DB4302F5407203F070
:102FD800010343B194688B6824F471611E4321F0A6
:102FE8000F010E4396600023AAE7194A936823F459
:102FF800604393604FF0A042114B91689B680B436C
:10300800DB4302F5407203F00103BBE70D4A4D684C
:10301800936890F838400C4F23F460432B4343EAFD
:103028004433064D9360094CAD68BB68A4682B43D4
:103038002343DB4303F00103CBE700BF0004005048
:103048000001005000070050000500500006005025
:10305800000300500849CA6810B400024FF6FF0484
:10306800224000F4E063134343F0BF6343F40033AA
:103078005DF8044BCB60704700ED00E0194BDB684E
:10308800C3F3022330B4C3F10705042D03F104048C
:1030980028BF0425062C19D9033B4FF0FF349C4068
:1030A80022EA04024FF0FF34AC4021EA04019940BF
:1030B800002841EA02010CDB00F1604000F56140A4
:1030C8000901C9B280F8001330BC704700221346CA
:1030D800E8E7054B00F00F0009010344C9B219766F
:1030E80030BC704700ED00E0FCEC00E0002807DB96
:1030F800044A00F01F01012340098B4042F82030A8
:10310800704700BF00E100E00138B0F1807F0ED2C7
:10311800084B10B4084C5860F02084F823000022B3
:10312800072110469A605DF8044B1960704701202A
:10313800704700BF10E000E000ED00E088B110B576
:103148000379044603F0FF023BB100230221012268
:10315800217123612271184610BD4271FEF720FDCE
:10316800F3E70120704700BFF8B54379012B2DD054
:103178000446022622682671012060710D4605F07A
:103188001007116800FA07F30B431360FEF7E2FE1D
:103198002268136865B903F03E03B34203D153684C
:1031A80043F0010353600123002023716071F8BDCF
:1031B800BE4003F47813B342F5D1536843F00203D9
:1031C80053600020012323716071F0E70220F8BDED
:1031D800704700BF03681A68910410B5044602D509
:1031E8005A6B920418D41A68910002D55A6B92004F
:1031F80000D410BD0422227122694FF0005142F020
:103208000202226159631A6822F0805220461A602D
:10321800BDE8104000F0F4B80422027102694FF4CE
:10322800005142F00102026159631A6822F4805287
:103238001A60FFF7CDFF2368D5E700BF2DE9F041FD
:1032480043798F68012B00F0C580144602230122C0
:10325800042F06460D464271037177D0036804F0C7
:103268001004EA69012A08D1996B2A6A1F20A04034
:1032780021EA0001A2400A439A63A969D86B072290
:10328800012902FA04FC6A695ED0022916BFB2FA63
:1032980082F10121490911432A79012A4FF4007268
:1032A8004FF4807802FA04F208FA04F842EA0C02B1
:1032B80047EA010720EA020269796FEA080808EA82
:1032C80002082A6808BF47F48077012908BF47F435
:1032D8000077022A28F4404873D048EA0208A74039
:1032E80047EA0807DF63D5E9031218684FF48045F9
:1032F800A54020EA05001860186840F6FE75A5404C
:1033080020EA050501FA04F0284318601868C0256A
:10331800A54020EA050018609201186EC1F38301E8
:1033280002F4706240F60F750A4305FA04F102FAD6
:1033380004F420EA01021443012100221C6610460D
:1033480031717271BDE8F0810021A4E7FEF7FCFD40
:1033580007462CB114E0FEF7F7FDC31B012B3CD840
:1033680033685B6B1B04F6D40120FEF7F3FD33686A
:103378006A6A1A640EE0FEF7E7FDC31B012B2CD81E
:1033880033685B6B002BF6DB0120FEF7E3FD336847
:103398006A6A5A649A6CA96AAF6804F0100440F229
:1033A800FF30A04022EA0002A1400A439A64DA6C86
:1033B800E96AFF20A04022EA0002A1400A43DA6439
:1033C8004FE700F0AFFD0C4B98420ED9336848F434
:1033D800004884E70220BDE8F0813369032243F006
:1033E8000803336110463271ACE7044B984288BF3A
:1033F80048F48048336872E70068890900B4C40457
:10340800704700BF90F82520022A034609D00422FD
:10341800C26301210022012083F8251083F82420AB
:103428007047026870B4846C1068DE6C20F00E007F
:10343800D3E910511060206820F48070206014686F
:10344800586D24F00104146001F01F0101228A4024
:10345800196D6A60716038B10268D3E9161422F4F4
:103468008072026000204C600121002283F8251040
:1034780083F8242070BC704790F82520022A034660
:1034880009D0012204200021D86383F824101046B3
:1034980083F825207047026870B5856C1068DE6C6B
:1034A80020F00E00D3E910411060106820F00100F0
:1034B80010602A68586D22F480722A6001F01F019A
:1034C80001228A40196D6260716030B10268D3E9E7
:1034D800161422F4807202604C609A6B0121002459
:1034E80083F8251083F824401AB1184690472046DF
:1034F80070BD104670BD00BF2DE9F04F0E6883B057
:10350800002E00F08B80DFF8D4E10023012202FABC
:1035180003F414EA060C7CD04D6825F0100A0AF171
:10352800FF32012A4FEA43084FF0030279D9C768EE
:103538008C6802FA08F227EA020704FA08F43C4306
:10354800C460D743046805F00302274002FA08F272
:103558003A43EC0002605CD55A4C226E42F00102FC
:103568002266226E23F0030404F1804402F0010273
:1035780004F58034019203F003024FEA8209019FA7
:10358800A7680F2202FA09F8B0F1904F27EA080756
:1035980018D04D4A904200F084804C4A904200F086
:1035A80085804B4A904276D04A4A904200F0848007
:1035B800494A90420CBF4FF005084FF0060808FA38
:1035C80009F21743A760DEF800406FEA0C07EA0328
:1035D80054BF3C404CEA0404CEF80040DEF80440F6
:1035E800AA0354BF3C404CEA0404CEF80440DEF879
:1035F8000840EA0254BF3C404CEA0404CEF80840B4
:10360800DEF80C20AC0254BF3A404CEA0202CEF875
:103618000C20013336FA03F27FF478AF03B0BDE82B
:10362800F08F8768D1F8089002FA08F227EA020BAF
:10363800CF6807FA08F747EA0B0787604768C5F3BA
:10364800001B27EA04075C469C403C434460C4686E
:1036580009FA08F924EA020449EA0404BAF1020F53
:103668006FEA0207C4607FF46DAF4FEAD30900EB3D
:10367800890903F00702D9F8204092004FF00F0A99
:103688000AFA02FB24EA0B0A0C69944044EA0A0489
:10369800C9F8204056E74FF0030808FA09F2174323
:1036A80090E7012202FA09F217438BE74FF002086C
:1036B80008FA09F2174385E74FF0040808FA09F2F7
:1036C80017437FE700100240000400480008004844
:1036D800000C004800100048001400480004014095
:1036E8000AB1816170478162704700BF3B4A10B4DC
:1036F800136868B903F4C063B3F5806F14D0D2F8C7
:10370800803023F48073C2F880305DF8044B704732
:10371800B0F5007F2FD023F4C06343F480631360B7
:1037280000205DF8044B7047D2F880102C4B2D48D0
:1037380021F48071C2F88010116821F4C06141F44D
:10374800007111601C685169322303FB04F3A0FB6C
:1037580003039B0C480503F1010306D500E023B1E0
:103768005169490503F1FF33F9D41C4B5B695C05CA
:10377800D6D50320C9E703F4C063B3F5806F09D039
:10378800D2F880305DF8044B43F480730020C2F80F
:1037980080307047D2F88010114B124841F4807184
:1037A800C2F88010116821F4C06141F40071116001
:1037B8001C685169322303FB04F3A0FB03039B0C31
:1037C800480503F10103D0D501E0002BCDD05169A4
:1037D800490503F1FF33C8D5F7E700BF0070004083
:1037E8000804002083DE1B43024A936843F48043A5
:1037F8009360704700700040002800F0C3812DE9F5
:10380800F0410368D90782B004462DD5B5498A68C6
:10381800C96802F00C020C2A00F00A81082A00F09C
:103828000C816368B3F5803F00F03381B3F5A02FB6
:1038380000F09B81AB4D2A6822F480322A602A6806
:1038480022F480222A60002B40F02881FEF77CFBBE
:10385800064605E0FEF778FB801B642800F23B81F2
:103868002B689F03F6D423689E0728D59D4A936842
:10387800D26803F00C030C2B00F0EC80042B00F052
:10388800EE80E368974D002B00F016812B6843F417
:1038980080732B60FEF758FB064605E0FEF754FBE5
:1038A800801B022800F217812B685805F6D56B6833
:1038B800226923F0FE4343EA02636B6023681A0718
:1038C80019D56369874D002B00F09E80D5F8943098
:1038D80043F00103C5F89430FEF736FB064605E0D1
:1038E800FEF732FB801B022800F2F580D5F89430F1
:1038F8009F07F5D52368590741D57A4B9A6DD200B1
:1039080000F1ED809A6D42F080529A659B6D03F04C
:1039180080530193019B0125734E3368DF0540F105
:103928001381A368012B00F0E380052B00F0698167
:103938006C4ED6F8902022F00102C6F89020D6F8F6
:10394800902022F00402C6F89020002B40F0D78087
:10395800FEF7FAFA41F28838074605E0FEF7F4FA6E
:10396800C01B404500F2B780D6F890309A07F5D4CE
:1039780025B15C4A936D23F08053936523689B06B9
:1039880018D5A369574D002B00F0CA80D5F8983098
:1039980043F00103C5F89830FEF7D6FA064605E06D
:1039A800FEF7D2FA801B022800F29580D5F89830ED
:1039B8009F07F5D5E06918B34A4DAB6803F00C03CF
:1039C8000C2B00F02C812B68022823F080732B60CD
:1039D80000F0DA80EB6823F00303EB60EB6823F078
:1039E800887323F48033EB60FEF7AEFA044604E0F4
:1039F800FEF7AAFA001B02286DD82B689B01F7D4A2
:103A0800002002B0BDE8F081D5F8943023F001031E
:103A1800C5F89430FEF798FA064604E0FEF794FAE3
:103A2800801B022857D8D5F894309807F6D461E758
:103A380001F0030103297FF4F4AE2A4A12689203C5
:103A48007FF512AF6268002A7FF40EAF012002B042
:103A5800BDE8F08102F00302022A7FF412AF214B85
:103A68001B685D0502D5E368002BEFD01D4A20696D
:103A780053681E4923F0FE4343EA00635360086815
:103A8800FEF720FA0028E1D123681A077FF533AF43
:103A980017E7144A136843F480331360FEF754FAA7
:103AA800104E054604E0FEF74FFA401B642812D872
:103AB80033689B03F7D5D6E62B6823F480732B6015
:103AC800FEF742FA06462B685905DDD5FEF73CFAA3
:103AD800801B0228F7D9032002B0BDE8F081002539
:103AE8001AE700BF001002400070004010040020D8
:103AF800654AD2F8903043F00103C2F89030FEF7DF
:103B080023FA614F064641F2883804E0FEF71CFAB2
:103B1800801B4045DFD8D7F890309907F6D527E7BE
:103B2800D5F8983023F00103C5F89830FEF70CFA61
:103B3800064604E0FEF708FA801B0228CBD8D5F821
:103B480098309807F6D435E7336843F480733360C8
:103B5800FEF7FAF907463368D8053FF5E2AEFEF7F7
:103B6800F3F9C01B0228F6D9B5E703F18043A3F5A2
:103B78003C331A6842F480221A601A6842F4803290
:103B88001A608BE701207047FEF7DEF9064604E06D
:103B9800FEF7DAF9801B02289DD82B689901F7D423
:103BA800E9683A4B226AA76AE66A606A0B401343DF
:103BB800D4E90C1243EA072343EAC66301384908EB
:103BC80043EA00130139520843EA4153013A43EAF0
:103BD8004263EB602B682C4E43F080732B60EB68DC
:103BE80043F08073EB60FEF7AFF9044605E0FEF79B
:103BF800ABF9001B02283FF66EAF33689A01F6D581
:103C0800FEE6214BD3F8902042F00402C3F890203E
:103C1800D3F8902042F00102C3F890206FE7012802
:103C28003FF4EFAEEB68226A03F0030191427FF4A0
:103C38000DAF616A03F0F0020139B2EB011F7FF4A6
:103C480005AFA16A03F4FE42B2EB012F7FF4FEAE8A
:103C5800E16A03F07842B2EBC16F7FF4F7AE226BF2
:103C68005208013A03F4C001B1EB425F7FF4EEAEB3
:103C7800626B5208013A03F0C063B3EB426F14BFA2
:103C880001200020BDE600BF001002400C809F010B
:103C9800184B9A6802F00C02042A27D09A6802F09E
:103CA8000C02082A24D09A6802F00C020C2A01D0CF
:103CB80000207047D968D868DB6801F00301C0F3B9
:103CC80003100329C3F3062300F101020CBF0A48BD
:103CD8000A48B0FBF2F000FB03F0064BDB68C3F3C5
:103CE800416301335B00B0FBF3F070470348704752
:103CF800014870470010024000127A000024F400C6
:103D0800002800F0EF807F4A2DE9F843136803F09C
:103D18000F038B420D4604460CD2136823F00F03A1
:103D28000B431360136803F00F038B4202D001208A
:103D3800BDE8F8832368DE0763D56268032A00F0CC
:103D48009A80714B022A1B6800F091805B05EED5C2
:103D5800FFF79EFF6D4B984200F2C68062684FF0F5
:103D68000009694EB36823F003031A43B260FEF7F3
:103D7800EBF841F28838074604E0FEF7E5F8C01B87
:103D8800404571D8B368626803F00C03B3EB820F47
:103D9800F3D123689F0736D4B9F1800F03D1B368F4
:103DA80023F0F003B360574E336803F00F03AB42C0
:103DB80046D823685A0706D55349E0688A6822F42A
:103DC800E06202438A601B0707D54F4A216993685E
:103DD80023F4605343EAC1039360FFF759FF4A4A4B
:103DE8004B4C92684B49C2F303120346A25C4A4803
:103DF80002F01F02D3400B600068BDE8F843FEF7ED
:103E080061B89807CFD5580704D53F498A6842F466
:103E1800E0628A60190706D53B4A936823F47C530D
:103E280043F4E0639360384AA1689368354E23F001
:103E3800F0030B439360336803F00F03AB42B8D928
:103E4800336823F00F032B433360FEF77DF841F20C
:103E580088380746336803F00F03AB42A9D0FEF752
:103E680073F8C01B4045F5D90320BDE8F8839A03D1
:103E78003FF56EAF5BE72448016889017FF557AFCE
:103E8800C768C168C06807F00307C1F30311032FAF
:103E980001F101060CBF21492149B1FBF6F11A4E87
:103EA8001A4FC0F3062001FB00F1F068C0F341602F
:103EB80001304000B1FBF0F1B94220D9B16811F0EE
:103EC800F00F05D013F002093FF44BAFA368B3B964
:103ED8000D498B6823F0F00343F080038B604FF0AB
:103EE80080093EE701207047074A936823F0F003F2
:103EF80043F08003936062684FF0800931E74FF028
:103F080000092EE7002002400010024000B4C4045B
:103F18007C580008080400201004002000127A00D1
:103F28000024F400014B1868704700BF0804002003
:103F3800054B064A9B680649C3F302230868D35C0D
:103F480003F01F03D8407047001002408C58000847
:103F580008040020054B064A9B680649C3F3C223A0
:103F68000868D35C03F01F03D84070470010024074
:103F78008C580008080400202DE9F0410368044625
:103F880013F4002082B056D0B64B9A6DD50040F19C
:103F98003E810027B44D2B6843F480732B60FDF7F6
:103FA800D3FF064605E0FDF7CFFF831B022B00F287
:103FB80039812B68D805F6D5AA4DD5F8903013F479
:103FC800407327D0226D9A4225D0D5F89010D5F8A5
:103FD800903043F48033C5F89030D5F8903021F410
:103FE800407023F48033C907C5F89030C5F89000B5
:103FF80040F14881FDF7A8FF41F28838064605E000
:10400800FDF7A2FF801B404500F20C81D5F89030E7
:104018009B07F5D5236D9349D1F8902022F440727F
:104028001343C1F89030002027B18E4A936D23F0D6
:10403800805393652368DD0708D58A496568D1F8F8
:10404800882022F003022A43C1F88820990708D55E
:104058008449A568D1F8882022F00C022A43C1F8C7
:1040680088205A0708D57F49E568D1F8882022F0CA
:1040780030022A43C1F888201F0708D579492569E5
:10408800D1F8882022F0C0022A43C1F88820DE0631
:1040980008D574496569D1F8882022F440722A430A
:1040A800C1F888209D0608D56E49A569D1F88820F1
:1040B80022F440622A43C1F88820590608D5694984
:1040C800E569D1F8882022F440522A43C1F88820B3
:1040D8001A0608D56349256AD1F8882022F4404297
:1040E8002A43C1F88820DF0508D55E49656AD1F8FA
:1040F800882022F440322A43C1F888209E0308D53C
:104108005849A56AD1F89C2022F003022A43C1F835
:104118009C209D0508D55349E56AD1F8882022F4EA
:1041280040222A43C1F8882059050BD54D49256BF3
:10413800D1F8882022F440122A43B5F5801FC1F82F
:10414800882071D01A050BD54649656BD1F88820AF
:1041580022F440022A43B5F5800FC1F8882068D0C0
:10416800DF040BD53F49A56BD1F8882022F04072B7
:104178002A43B5F1807FC1F888205FD09E040BD513
:104188003849E56BD1F8882022F040622A43B5F11E
:10419800006FC1F8882056D05D040BD53149256CD5
:1041A800D1F8882022F040622A43B5F1006FC1F8A7
:1041B80088204DD019040BD52A49656CD1F8882080
:1041C80022F040522A43B5F1805FC1F8882044D0DC
:1041D800DA030BD52349A56CD1F8882022F0404298
:1041E8002A43B5F1804FC1F888203FD05B030BD537
:1041F8001C4AE16CD2F89C3023F440130B43B1F510
:10420800001FC2F89C3036D002B0BDE8F0819A6D2C
:1042180042F080529A659B6D03F080530193019B95
:104228000127B7E60320FFE6CA6842F48012CA6095
:1042380088E7CA6842F48012CA6091E7CA6842F403
:104248008012CA609AE7CA6842F48012CA60A3E77B
:10425800CA6842F48012CA60ACE7CA6842F4803285
:10426800CA60B5E70010024000700040CA6842F416
:104278008032CA60BAE7D36843F48013D36002B0CF
:10428800BDE8F0811346C6E6002800F0898038B5FD
:1042980090F83D30044603F0FF02002B78D02168E7
:1042A800434A022384F83D3091420B685CD0B1F157
:1042B800804F2CD0A2F59432914228D002F580622A
:1042C800914224D002F58062914220D002F59432C6
:1042D800914249D002F5E052914263D0354A914269
:1042E8005BD002F58062914257D002F5806291421C
:1042F80053D002F5006291424FD0A569E068626828
:1043080023F080032B430B60C8628A6210E0A26826
:104318002569E06823F07003134323F44073A2690E
:104328002B4323F08003134362680B60C8628A62E0
:1043380001234B6184F8483084F83E3084F83F30DC
:1043480084F8403084F8413084F8423084F84330AF
:1043580084F8443084F8453084F8463084F847308F
:1043680084F83D30002038BDA5682069A26923F093
:1043780070032B4323F44073034323F08003134358
:104388000B60E368CB6263688B6263690B63CFE79A
:1043980080F83C20FDF73EFC81E72069A269E9E747
:1043A80001207047A26823F07003134396E700BF0B
:1043B800002C01400040014090F83D30012B32D1E3
:1043C80003681B49022280F83D20DA688B4242F0DC
:1043D8000102DA6019D0B3F1804F16D0154A934222
:1043E80013D002F5806293420FD002F580629342A7
:1043F8000BD002F59432934207D002F54062934203
:1044080003D002F58052934207D199680A4A0A40BC
:10441800062A0AD0B2F5803F07D01A6842F0010296
:104428001A6000207047012070470020704700BFC5
:10443800002C0140000400400700010090F83C30C7
:10444800012B00F08880F0B402680124022380F870
:104458003C4080F83D3095680B685A4C602B04EA64
:104468000504946079D01CD9B3F5005F63D040D9B6
:1044780055498B4203D033D954498B424BD191686B
:1044880021F4401121F070010B4343F007039360BE
:104498000023012280F83D2080F83C30F0BC18460B
:1044A8007047402B74D03CD9502BF1D1156A166A4D
:1044B8004C68CF6826F001061662936925F00A0158
:1044C80023F0F00343EA07132143936111629368D1
:1044D80023F4401323F0700343F057039360D7E7A6
:1044E80010398B42CBD023F01001B1F5801FC6D014
:1044F800CEE7702BCCD1D1E90153CC6891682B431E
:1045080043EA042321F47F410B439360936843F00B
:1045180077039360BCE7303923F010048C42AED0A7
:10452800B6E7202BABD002D9302BB1D1A7E733F0B7
:104538001001ADD1A3E7D1E90153CC6891682B43B1
:1045480043EA042321F47F410B439360936843F4C7
:10455800804393609CE702207047146A4D68CE68D8
:1045680024F0100414629169136A21F4704123F055
:10457800A00343EA051341EA063191611362936887
:1045880023F4401323F0700343F0670393607FE73D
:10459800156A166A4C68CF6826F001061662936998
:1045A80025F00A0123F0F00343EA0713214393613E
:1045B8001162936823F4401323F0700343F0470318
:1045C800936065E78800CEFF30001000700010008F
:1045D800704700BF704700BF704700BF704700BFFB
:1045E80003681A69910710B5044603D5DA6892077B
:1045F80000F18A801A69520702D5DA68500770D428
:104608001A69110702D5DA68120758D41A69D1064F
:1046180002D5DA68D2063ED41A69D00703D5DA681B
:10462800D10700F18A801A69120603D5DA681006E4
:1046380000F18B801A69D10503D5DA68120600F1FA
:104648008C801A69500603D5DA68510600F18D800E
:104658001A69920603D5DA68900600F18E801A6905
:10466800D10203D5DA68D20200F18F801A6990026C
:1046780003D5DA68910200F190801A69520203D5D5
:10468800DA68500200F191801A69110202D5DA68DD
:1046980012024AD410BD6FF0100108221961227766
:1046A800DB6913F4407F204640F09080FFF790FFCD
:1046B8002046FFF791FF002223682277ACE76FF0CE
:1046C8000801042219612277DB699B0720467AD109
:1046D800FFF77EFF2046FFF77FFF0022236822773F
:1046E80094E76FF004010222196122779B6913F4A1
:1046F800407F204664D1FFF76BFF2046FFF76CFF31
:104708000022236822777BE76FF0020101221961FA
:1047180002779B69990750D1FFF75AFF2046FFF7A8
:104728005BFF00222368227764E76FF400022046CB
:104738001A61BDE8104000F0BDB86FF001021A61BF
:104748002046FCF789FB23686DE76FF080021A6149
:10475800204600F0A5F823686CE76FF480721A61B0
:10476800204600F09FF823686BE76FF040021A615B
:104778002046FFF733FF23686AE76FF020021A61CB
:10478800204600F08BF8236869E76FF480121A61FD
:10479800204600F089F8236868E76FF400121A6170
:1047A800204600F083F8236867E76FF480021A61F7
:1047B800204600F07DF8236866E7FFF70BFFB0E7B7
:1047C800FFF708FF9CE7FFF705FF86E7FFF702FF03
:1047D80071E700BF90F83C30012B58D070B40268E4
:1047E8002C4C022380F83D30A2425368956842D091
:1047F80004F50064A24232D004F5E054A2422ED05F
:104808000C6823F0007323F0700323435360B2F164
:10481800804F16D0204B9A4213D003F580639A42FA
:104828000FD003F580639A420BD003F594339A4274
:1048380007D003F540639A4203D003F580539A42A8
:1048480004D18B6825F080051D4395600023012263
:1048580080F83D2080F83C3070BC18467047D1E99C
:10486800004623F47003334323F0007323F07003EE
:1048780023435360CBE7D1E9004623F47003334365
:1048880023F0007323F0700323435360D9E7022019
:10489800704700BF002C014000040040704700BF73
:1048A800704700BF704700BF704700BF704700BF28
:1048B800704700BF704700BFD0F88830202B49D11F
:1048C800002945D0002A43D090F88030012B41D0F0
:1048D80030B4494B0468012580F880509C424FF061
:1048E8000005C56606D063681B0203D5236843F03C
:1048F8008063236083688165B3F5805F4FF00001B2
:10490800A0F85C20A0F85E20016725D0002B38D1E4
:104918000369002B5ED07F23A0F86030002122239A
:10492800C0F88C10C0F88830A368416E43F00103CA
:10493800B1F1005FA3603AD0304B0367002380F8E1
:104948008030226842F490721846226030BC70476A
:1049580001207047022070470369C3B92221C0F8BB
:104968008C30C0F88810A368416E43F0010340F210
:10497800FF15B1F1005FA0F86050A36035D0204B5F
:10498800DBE7B3F1805F29D0A0F86010C6E72223E7
:10499800C0F88C10C0F88830A368416E43F001035A
:1049A800FF25B1F1005FA0F86050A360C4D1B0F852
:1049B80068309342C0D8134B0367002380F88030D7
:1049C800226842F480722260A26842F0805218463F
:1049D800A260BBE7FF23A0F860309FE70369002BC4
:1049E80099D03F23A0F8603098E7B0F86830934238
:1049F800C5D8054BE0E700BF00800040014D000826
:104A0800814D0008F94D00086D4F0008704700BF40
:104A1800704700BF08B5806A0023A0F85E30A0F890
:104A28005630FFF7F5FF08BD704700BF0268D3692D
:104A38002DE9F04140F60F063342156891680446A7
:104A480027D0AA48AA4E08402E40064353D1E06E0C
:104A580001282CD0DE0202D5480200F1D7801F06BB
:104A680006D501F4000105F08000014340F0C6803E
:104A78005E0602D5680600F1D580190202D56A00E3
:104A880000F1DD80DB0102D5002DC0F20B81BDE80D
:104A9800F0819E06DBD505F0200601F080573E43E5
:104AA800D5D0036F002BF2D0BDE8F0411847D806E7
:104AB800D0D5EF06CED510231362936813F04003C8
:104AC80000F0C980E06F01684B689BB2002BDED014
:104AD800B4F85C509D42DAD9A4F85E300B6813F044
:104AE800200300F0EA80B4F85E10691A89B2204603
:104AF800FFF79AFFCBE7DF0709D5EE0507D50126B3
:104B08001662D4F88C6046F00106C4F88C609F07E2
:104B180067D5CE0709D502261662D4F88C605F07E0
:104B280046F00406C4F88C605FD41E070BD505F068
:104B38002006304307D008201062D4F88C0040F0DB
:104B48000800C4F88C0018050AD56F0108D54FF481
:104B580000601062D4F88C0040F02000C4F88C008B
:104B6800D4F88C00002892D09E0606D505F02005C2
:104B780001F0805155EA010366D1D4F88C5093684E
:104B880005F0280503F040031D4300F090801368EA
:104B980023F490731360936823F0805323F0010388
:104BA8009360E36E012B03D1136823F010031360A5
:104BB80020210023C4F88810E366916823674D0616
:104BC8002CD59368E06F23F04003936030B3494BD2
:104BD8008363FEF751FC00283FF459AFE06F836B05
:104BE80062E75E07A1D5CF079FD504261662D4F8E1
:104BF8008C6046F00206C4F88C6096E7636F002B61
:104C08003FF445AF2046BDE8F04118474FF4801304
:104C180020461362BDE8F04100F0EEBC2046FFF7E5
:104C2800F7FE34E71368202523F0400300211360C2
:104C38002046C4F884506167FFF7E8FE27E720465E
:104C4800BDE8F04100F0DCBC236F002B95D0204676
:104C58009847226891E7B4F85E00B4F85E1089B20C
:104C680080B200293FF413AFB4F85C10081A81B27F
:104C780000293FF40CAF106820F490701060906821
:104C880020F0805020F0010020259060C4F8885062
:104C9800E3661068236720F0100313602046FFF7CF
:104CA800C3FEF4E62046BDE8F04100F0A7BC20466C
:104CB800FFF7AEFEC4F88C50E9E6116821F4807164
:104CC8001160916821F0010191609168202521F01F
:104CD80040019160C4F88850E366136823F010031C
:104CE8001360FEF78FFBB4F85C50FCE6010000107F
:104CF800200100041D4A000838B5D0F88830222B5E
:104D0800044605D00268936943F00803936138BDEF
:104D1800036890F860105B6A826D0B401370B0F8FE
:104D28005E30826D013B9BB2A0F85E30B0F85E3019
:104D380001329BB28265002BE9D10268116821F427
:104D4800907111609168202521F001019160C0F8EF
:104D58008850C16E0367012904D0FCF7A1FB00232A
:104D6800E36638BD1368B0F85C1023F010031360D5
:104D7800FFF75AFEF3E700BF38B5D0F8883002686D
:104D8800222B044604D0936943F00803936138BD8D
:104D9800536AB0F86050816D2B4021F8023BB0F89F
:104DA8005E308165013B9BB2A0F85E30B0F85E30A2
:104DB8009BB2002BEBD1116821F4907111609168BE
:104DC800202521F001019160C0F88850C16E036769
:104DD800012904D0FCF764FB0023E36638BD13689F
:104DE800B0F85C1023F010031360FFF71DFEF3E723
:104DF8002DE9F84F0368D9691F689E68D0F88820A4
:104E0800222A05D09A6942F008029A61BDE8F88F13
:104E1800B0F868200446002A00F09C808A0640F119
:104E2800828090F86050DFF8389107F4807706F0B8
:104E380001064FF000084FF0040A5B6AA26D2B4090
:104E48001370B4F85E302168A26D013B9BB2A4F8E0
:104E58005E30D1F81CB001321BF0070FA26526D0D6
:104E68001BF0010F08D03FB101230B62D4F88C303E
:104E780043F00103C4F88C301BF0020F35D096B113
:104E880002230B62D4F88C301BF0040F43F00403A8
:104E9800C4F88C3007D0C1F820A0D4F88C3043F087
:104EA8000203C4F88C30D4F88C30002B35D1B4F818
:104EB8005E309BB2A3B92268116821F48071116039
:104EC8009168202001EA09019160C4F88800E16E28
:104ED8002367012917D02046FCF7E2FAC4F86C8052
:104EE8001BF0200F1FD02368A7E71BF0040FDAD0B0
:104EF800002ED8D0C1F820A0D4F88C3043F002039B
:104F0800C4F88C30CFE71368B4F85C1023F01003B2
:104F180013602046FFF788FDE0E72046FFF778FD9D
:104F2800C4F88C80C3E7B4F85E309BB2002B3FF422
:104F38006DAFB4F868209A427FF668AF23680749D6
:104F48009A6822F080529A601A68216742F020021B
:104F58001A605BE7B0F85E3058E700BF014D000803
:104F6800FEFFFFEF02682DE9F84FD16917689668D0
:104F7800D0F88830222B05D0936943F00803936159
:104F8800BDE8F88FB0F868300446002B00F099802F
:104F98008B067FD5B0F86050DFF8309107F4807742
:104FA80006F001064FF000084FF0040A536AA16D9D
:104FB8002B4021F8023BB4F85E30A165013B9BB25F
:104FC800A4F85E30D2F81CB01BF0070F26D01BF0F7
:104FD800010F08D03FB101231362D4F88C3043F09D
:104FE8000103C4F88C301BF0020F35D096B10223B0
:104FF8001362D4F88C301BF0040F43F00403C4F898
:105008008C3007D0C2F820A0D4F88C3043F00203CB
:10501800C4F88C30D4F88C30002B35D1B4F85E301D
:105028009BB2A3B92268116821F48071116091685C
:10503800202001EA09019160C4F88800E16E236725
:10504800012917D02046FCF72BFAC4F86C801BF016
:10505800200F1FD02268A9E71BF0040FDAD0002E1A
:10506800D8D0C2F820A0D4F88C3043F00203C4F89A
:105078008C30CFE71368B4F85C1023F0100313608A
:105088002046FFF7D1FCE0E72046FFF7C1FCC4F853
:105098008C80C3E7B4F85E309BB2002B3FF470AF4E
:1050A800B4F868209A427FF66BAF236806499A687D
:1050B80022F080529A601A68216742F020021A6032
:1050C8005EE7B0F85E305BE7814D0008FEFFFFEF5A
:1050D800836ADA0710B406D50168C46A4A6822F4FC
:1050E800003222434A609C0706D50168046B4A686F
:1050F80022F4803222434A60590706D50168446B7E
:105108004A6822F4802222434A601A0706D50168B9
:10511800846B4A6822F4004222434A60DC0606D5C2
:105128000168C46B8A6822F4805222438A60990617
:1051380006D50168046C8A6822F4005222438A600A
:105148005A0609D50168446C4A6822F48012224341
:10515800B4F5801F4A600BD01B0606D50268C16CE7
:10516800536823F400230B4353605DF8044B7047E6
:105178004A68846C22F4C00222434A60ECE700BF0C
:1051880038B500230446C0F88C30FCF7DDFE2368F0
:105198001A68110705460DD41A68520731D400233E
:1051A800202284F88030C4F884201846C4F8882067
:1051B800E36638BDDA699202EED4FCF7C5FE2368CF
:1051C800401BB0F1007F1A682CD25007F2D5DA697B
:1051D8001105EFD54FF400621A621A6822F4D072F2
:1051E8001A609968002521F001019960202284F84D
:1051F8008050C4F884200320C4F88820C4F88C2088
:1052080038BDDB695802CAD4FCF79EFE2368401BF0
:10521800B0F1007F1A6805D25107F2D5DA69120594
:10522800EFD5D7E722F4D0721A609A68002522F0E9
:1052380001029A60202184F88050C4F88410032069
:10524800C4F8881038BD00BF002800F0B581D0F838
:10525800843070B50446002B6CD023682669C04999
:105268002422C4F884201868A26820F0010018607D
:1052780060691D6832430243E069294002430A43DA
:105288001A605A68E568B74922F440522A435A60BE
:105298008B42A269996852D0D4E9086521F06E4121
:1052A80021F4306132430A439A60DA6AAE4922F047
:1052B8000F022A438B42DA6228D0AC4A934200F0AC
:1052C8009180AB4A934200F06581AA4A934200F06C
:1052D800E480A94A934211D1A84BD3F8883003F44B
:1052E8004073B3F5007F00F07D8100F20181002B4F
:1052F80000F0E780B3F5807F00F0DD804FF0011209
:105308000023C4E91C33A266012070BD9B4BD3F86F
:10531800883003F00303013B022B40F2D980B0F53B
:10532800004F00F05181FEF715FE002800F0D380F1
:10533800656A81E080F88030FCF7F2FC8DE721F0A7
:105348006E4121F430610A439A60DA6A616A8B48D7
:1053580022F00F020A43DA62D0F8883003F440637F
:10536800B3F5006F00F03C810CD8002B00F03281BF
:10537800B3F5806FC2D1FEF78BFC002800F0AB803C
:10538800616A04E0B3F5406FB8D14FF40040656836
:105398007B4B05EB450633F81120B0FBF2F3B34223
:1053A800ACD3B3EB053FA9D8002600233146FBF761
:1053B800D5FB0B0243EA106302026808101843F198
:1053C80000012A463346FBF7C9FB6E4BA0F5407235
:1053D8009A4293D822684FF00113D060C4E91C6642
:1053E800A36643E0654B684AD3F8883003F00C03A2
:1053F800D35CB0F5004F7FD0082B3FF67FAF01A2FA
:1054080052F823F0D35400082F5300089F54000883
:1054180005530008C5540008055300080553000843
:10542800055300083D540008302B7FF467AFB0F5F2
:10543800004F7AD04FF400406268514B33F8153072
:10544800B0FBF3F303EB5203B3FBF2F39BB2A3F10C
:1054580010014FF6EF7291423FF650AF2068C360DB
:105468000022C4E91C224FF00111A166A36A002B97
:105478003AD123685A6822F490425A609A6822F016
:105488002A029A601A6842F0010220461A60BDE8B2
:105498007040FFF775BE3D48CEE7384BD3F88830EB
:1054A80003F0C003802B00F09D8000F2818043B19F
:1054B800402B7FF423AFB0F5004F7FD0FEF7E8FB19
:1054C80033E7B0F5004F00F08280FEF731FD2CE79E
:1054D8002F4AD35C8DE70023C4E91C33A36A4FF03D
:1054E8000112A266002BC4D02046FFF7F1FDC0E7E9
:1054F800B3F5407F9BD001E7082B3FF6FFAE01A232
:1055080052F823F0D7550008D15500083155000846
:1055180005530008C5550008055300080553000841
:1055280005530008335500081848626814495308A1
:1055380031F81510B0FBF1F003EB4000B0FBF2F0CE
:1055480082B2A2F110014FF6EF7399423FF6D6AE40
:1055580020F00F039BB2C2F34202206813437EE798
:10556800F369FFCF0080004000380140004400404C
:1055780000480040004C004000500040001002402D
:10558800A8580008FFFC0F00985800080024F400F1
:1055980094580008164BD3F8883003F03003202BBA
:1055A80020D03FF641AF002B8BD0102B83D0A5E63F
:1055B800C02B3FF43CAFA1E601207047FEF768FB23
:1055C800002888D0656AB0E7FEF7C4FCF8E7FEF764
:1055D800AFFCF5E7FEF7ACFC00283FF47CAFCFE664
:1055E8000448D4E6B0F5004F02487FF425AF9CE7A5
:1055F800001002400024F400704700BF704700BF4D
:10560800704700BF90F88020012A17D00268242133
:1056180030B4C0F88410034610681468002120F0E4
:10562800005024F00104146020255966106083F8A6
:1056380080100846C3F8845030BC70470220704779
:1056480090F88020012A33D0034624201A68F0B449
:10565800C3F88400146810685D6E20F001001060C3
:10566800906820F0604001439160F5B196689568B4
:105678001048114FC6F342666D0F815D405DBE5DF7
:105688007D5DC900C000B1FBF6F1B0FBF5F0A3F8F1
:10569800681000212025A3F86A00146083F88010A0
:1056A8000846C3F88450F0BC704701210846EEE76D
:1056B80002207047C8580008C058000890F8802099
:1056C800012A33D0034624201A68F0B4C3F88400B2
:1056D800146810685D6E20F001001060906820F07A
:1056E800606001439160F5B1966895681048114F64
:1056F800C6F342666D0F815D405DBE5D7D5DC9008C
:10570800C000B1FBF6F1B0FBF5F0A3F8681000217A
:105718002025A3F86A00146083F880100846C3F8AF
:105728008450F0BC704701210846EEE7022070471C
:10573800C8580008C058000870B50D4D0D4C641BC2
:10574800A4100026A64209D10B4D0C4C00F020F8FD
:10575800641BA4100026A64205D170BD55F8043B71
:1057680098470136EEE755F8043B98470136F2E7CB
:10577800D8580008D8580008D8580008DC5800083D
:1057880002440346934200D1704703F8011BF9E72E
:10579800F8B500BFF8BC08BC9E467047F8B500BF16
:0857A800F8BC08BC9E467047E6
:1057B0000000100011001200130015001600170061
:1057C00018001A001C001D001F00210023002500E6
:1057D000270029002C002E003100340037003A0049
:1057E0003E004100450049004E00520057005D0058
:1057F000620068006E0075007B0083008B009300E0
:105800009C00A500AF00B900C400D000DC00E90096
:10581000F70006011501260137014A015D017201F9
:1058200088019F01B801D201EE010B022A024B024E
:105830006E029302BA02E40210033F037003A40352
:10584000DC03170455049704DD0427057505C80516
:1058500020067D06E0064907B8072D08A9082D098E
:10586000B9094D0AEA0A900B400CFA0CC00D910ED2
:105870006F0F5A1053115B127213FF0000000000EB
:1058800000000000010203040607080900000000F0
:10589000010203040402080000101010041010108C
:1058A00002101010080000000100020004000600B1
:1058B00008000A000C0010002000400080000001D9
:1058C00008040204080101010101010307010000AD
:0858D000C4B2FF7F01000000DB
:0458D800FD010008C6
:0458DC00D9010008E6
:1058E000080100200000803F00000A0014001E0094
:1058F000280032003C00460050005A0064006E0050
:10590000780082008C009600A000AA00B400BE00BF
:10591000C800D200DC00E600F000FA0004010E012D
:10592000180122012C01360140014A0154015E0197
:10593000680172017C01860190019A01A401AE0107
:10594000B801C201CC01D601E001EA01F401FE0177
:10595000080212021C02260230023A0244024E02DF
:10596000580262026C02760280028A0294029E024F
:10597000A802B202BC02C602D002DA02E402EE02BF
:10598000F80202030C03160320032A0334033E0328
:10599000480352035C03660370037A0384038E0397
:1059A0009803A203AC03B603C003CA03D403DE0307
:1059B000E803F203FC03060410041A0424042E0472
:1059C000380442044C04560460046A0474047E04DF
:1059D000880492049C04A604B004BA04C404CE044F
:1059E000D804E204EC04F604AB02CC02ED020F038F
:1059F0003003500371039003B003CE03EC0309049A
:105A0000260441045B0475048D04A404BA04CF0485
:105A1000E204F4040405130521052D0538054105AC
:105A200048054E05520554055505540552054E05C9
:105A30004805410538052D05210513050405F40425
:105A4000E204CF04BA04A4048D0475045B04410489
:105A500026040904EC03CE03B00390037103500342
:105A600030030F03ED02CC02AB028902680246024A
:105A700025020502E401C501A501870169014C0168
:105A80002F011401FA00E000C800B1009B0086005D
:105A90007300610051004200340028001D00140012
:105AA0000D000700030001000000010003000700D3
:105AB0000D0014001D002800340042005100610058
:105AC000730086009B00B100C800E000FA001401DA
