:020000040800F2
:100000000000022079170008451600084B1600086A
:1000100051160008571600085D1600080000000081
:10002000000000000000000000000000631600084F
:1000300071160008000000007F1600088D160008E9
:10004000C9170008C9170008C9170008C917000810
:10005000C9170008C9170008C9170008C917000800
:10006000C9170008C9170008C91700089916000821
:10007000C9170008AD160008C9170008C9170008FD
:10008000C9170008C9170008C9170008C9170008D0
:10009000C9170008C9170008C9170008C9170008C0
:1000A000C9170008C9170008C9170008C9170008B0
:1000B000C1160008C9170008C9170008C9170008A9
:1000C000C9170008C9170008C9170008C917000890
:1000D000C9170008D5160008C9170008C917000875
:1000E000C9170008C9170008C9170008C917000870
:1000F000E9160008C9170008C9170008FD1600080E
:10010000C9170008C917000811170008C917000807
:10011000C9170008C917000825170008411700086B
:10012000C9170008C9170008C9170008C91700082F
:10013000C9170008C9170008C9170008C91700081F
:10014000C9170008C9170008C917000800000000F7
:10015000000000000000000000000000000000009F
:10016000000000000000000000000000C9170008A7
:10017000C9170008C9170008C9170008C9170008DF
:10018000C9170008C9170008C9170008C9170008CF
:10019000C9170008C9170008C9170008C9170008BF
:1001A000C9170008C9170008C9170008C9170008AF
:1001B000C9170008C9170008C9170008C91700089F
:1001C000C9170008C9170008C9170008C91700088F
:0801D000C9170008C917000857
:1001D80010B5054C237833B9044B13B10448AFF379
:1001E80000800123237010BD1404002000000000CB
:1001F800847C000808B5034B1BB103490348AFF3DF
:10020800008008BD0000000018040020847C00085D
:1002180053B94AB9002908BF00281CBF4FF0FF3165
:100228004FF0FF3000F06EB9ADF1080C6DE904CE67
:1002380000F006F8DDF804E0DDE9022304B07047B9
:100248002DE9F047089D04468C46002B40F083803A
:100258008A42174647D9B2FA82F242B1C2F1200067
:1002680024FA00F09140974040EA010C94404FEA8C
:100278001748230CBCFBF8F61FFA87FE08FB16C1CB
:1002880043EA014306FB0EF1994209D9FB1806F12E
:10029800FF3080F01981994240F21681023E3B44BA
:1002A8005B1AA4B2B3FBF8F008FB103344EA03442A
:1002B80000FB0EFEA64509D93C1900F1FF3380F07A
:1002C8000581A64540F2028102383C4440EA0640D6
:1002D800A4EB0E0400261DB1D4400023C5E9004359
:1002E8003146BDE8F08702B9FFDEB2FA82F2002A91
:1002F80050D1CB1B4FEA174E1FFA87F80126B3FBE4
:10030800FEFC210C0EFB1C3341EA034108FB0CF3F5
:100318008B4207D979180CF1FF3002D28B4200F2D8
:10032800E9808446C91AA3B2B1FBFEF00EFB101196
:1003380043EA014408FB00F8A04507D93C1900F13D
:10034800FF3302D2A04500F2D9801846A4EB080476
:1003580040EA0C40BFE78B4209D9002D00F0B1807C
:100368000026C5E9000130463146BDE8F087B3FAFA
:1003780083F6002E4AD18B4202D3824200F2B88023
:10038800841A61EB030101208C46002DA8D0C5E931
:10039800004CA5E7C2F1200320FA03F6974001FAC2
:1003A80002F04FEA174ED9403043030CB1FBFEF67A
:1003B8001FFA87F80EFB161143EA014306FB08F102
:1003C800994204FA02F409D9FB1806F1FF3C80F0BF
:1003D8008D80994240F28A80023E3B445B1A81B28A
:1003E800B3FBFEF00EFB103341EA034100FB08F3B8
:1003F8008B4207D9791800F1FF3C73D28B4271D92F
:1004080002383944CB1A40EA064678E7C6F1200C90
:1004180003FA06F422FA0CF31C4320FA0CF701FA4B
:1004280006F34FEA144E21FA0CF11F433B0CB1FBC3
:10043800FEF91FFA84F80EFB191143EA014109FB82
:1004480008FA8A4502FA06F200FA06F308D9611892
:1004580009F1FF3048D28A4546D9A9F10209214459
:10046800A1EB0A01BFB2B1FBFEF00EFB101147EA87
:10047800014700FB08F8B84507D9E71900F1FF3133
:100488002ED2B8452CD90238274440EA0940A7EBB8
:100498000807A0FB02894F45C64649461AD317D01C
:1004A8005DB1B3EB0E0267EB010707FA0CFCF240F3
:1004B8004CEA0202F740C5E9002700263146BDE8AC
:1004C800F0872E4628460BE70646E9E61846FDE67D
:1004D8004345E5D2B8EB020E69EB04010138DFE7CA
:1004E8000846D2E760468DE78146B9E7664675E774
:1004F80030464AE7ACF1020C394413E702383C4471
:1005080024E700BF704700BF80B500AF01F059F97C
:1005180000F076FA00F00CFE00F0F6FB00F08AFD21
:1005280000F0DEFA00F078FB00F028FC00F0C2FCD6
:1005380000F0F6FC00F02AFD00F0C8FD00F06CFCAD
:100548007F21494802F030FF7F21484802F02CFF04
:1005580001224749454801F0EFFD04224549424838
:1005680001F0EAFD0021444803F0EBF9434805F0A7
:10057800D1F9434805F0CEF9424805F0CBF9424895
:1005880005F0C8F9414B00221A70404B00229A71BD
:100598003E4B00221A733D4B00221A713B4B00223E
:1005A8009A723A4B00221A74394B00221A70394B4E
:1005B80041F2CC32DA62384B40F6B772DA62374B26
:1005C80040F63B52DA62364B364A1A600322364905
:1005D800364805F037FF364B1B78902B06D10122A1
:1005E8004FF40061334804F0F1F809E0304B1B7810
:1005F800802B05D100224FF400612E4804F0E6F864
:100608001B4B1B88B3F5806F03D2254B254A1A6014
:10061800DCE7174B1B88B3F5806F08D3144B1B8896
:10062800B3F5006F03D21E4B234A1A601AE0104B31
:100638001B88B3F5006F08D30D4B1B88B3F5406FCB
:1006480003D2174B1D4A1A600CE0094B1B88B3F5FF
:10065800406FBBD3064B1B88B3F5805FB6D2104BF7
:10066800174A1A60B2E700BF4C050020B805002001
:100678003204002034040020880400207807002079
:100688002C070020DC0700203C040020180700206D
:1006980030040020001000400014004000340140E5
:1006A800040400200400002028080020240600205C
:1006B800480500200004004804010020040300202D
:1006C80004020020B0B582B000AF78607B686F4A42
:1006D800934245D16E4B1B7818466E4B1A686C4B8B
:1006E8001B79591CCCB26A490C715B0013441B88F6
:1006F80003FB00F2664B9B791846664B1968644BFE
:100708009B7A5B000B441B8803FB00F31A44604B85
:100718001B7B18465F4B19685D4B1B7C5B000B44C9
:100728001B8803FB00F3134407EE903AB8EEE77A10
:10073800594BD3ED007A67EE277AFCEEE77A17EE8D
:10074800903A9BB200220021544803F0A7F9504B7D
:100758001B79802B40F095804D4B00221A7190E058
:100768007B684F4A934244D1494B1B781946494B01
:100778001A68474B1B795B0013441B8803FB01F283
:10078800434B9B791C46434B1968414B9B7A581C39
:10079800C5B23F4885725B000B441B8803FB04F31A
:1007A8001A443B4B1B7B18463A4B1968384B1B7C49
:1007B8005B000B441B8803FB00F3134407EE903ADD
:1007C800B8EEE77A344BD3ED007A67EE277AFCEE81
:1007D800E77A17EE903A9BB2002200212F4803F0E7
:1007E8005DF92B4B9B7A802B4BD1294B00229A72B7
:1007F80047E07B682B4A934243D1254B1B78194627
:10080800244B1A68224B1B795B0013441B8803FB9B
:1008180001F21F4B9B7918461E4B19681C4B9B7A9B
:100828005B000B441B8803FB00F31A44184B1B7B2B
:100838001C46184B1968164B1B7C581CC5B214482B
:1008480005745B000B441B8803FB04F3134407EE99
:10085800903AB8EEE77A104BD3ED007A67EE277A34
:10086800FCEEE77A17EE903A9BB2002200210B4883
:1008780003F014F9064B1B7C802B02D1044B002299
:100888001A7400BF0837BD46B0BD00BF2C07002052
:10089800180700200404002000000020880400201D
:1008A800DC0700203C04002080B485B000AF7860ED
:1008B800484B1B78902B20D10023FB7308E0FA7B70
:1008C800FB7B4449895C444AD154FB7B0133FB736D
:1008D800FB7B022BF3D9414B1B781946404A0B4648
:1008E8005B000B445B00134401221A703B4B1B78DE
:1008F8000133DAB2394B1A7023E0364B1B78802B60
:100908001FD10023BB7308E0BA7BBB7B3149895CEC
:10091800314AD154BB7B0133BB73BB7B022BF3D968
:100928002E4B1B78013BDAB22C4B1A702B4B1B78E1
:1009380019462B4A0B465B000B445B00134400220C
:100948001A70264B1B78032B2BD0032B3CDC012B76
:1009580002D0022B12D037E01F4B5B780133214ABB
:1009680032F81330DB011A461F4BB3FBF2F31F4A70
:10097800013BD3621E4B1F4A1A6025E0164B5B7879
:100988000133184A32F81330DB011A46164BB3FB11
:10099800F2F3194A013BD362154B4FF07F521A60AC
:1009A80012E00D4B5B7801330E4A32F81330DB014D
:1009B8001A460D4BB3FBF2F3104A013BD3620C4BC2
:1009C8004FF07E521A6000BF00BF1437BD465DF875
:1009D800047B7047280800204805002030040020C8
:1009E800180700209C7C000880FE210A00100040A7
:1009F8000000002000004040001400400034014086
:100A080080B5A8B000AF07F1680338220021184666
:100A180007F02CF907F1540300221A605A609A6013
:100A2800DA601A613B4654220021184607F01EF985
:100A3800002003F0E3FE0223BB664FF480737B675C
:100A48004023BB670223C7F884300223C7F88830E5
:100A58000423C7F88C305523C7F890300223C7F811
:100A680094300223C7F898300223C7F89C3007F166
:100A78006803184603F076FF0346002B01D000F008
:100A880097FB0F237B650323BB650023FB650023CE
:100A98003B6600237B6607F154030421184604F0E3
:100AA80079FA0346002B01D000F082FB0B4B3B6028
:100AB80000237B604FF000537B644FF00043BB641E
:100AC8003B46184604F082FC0346002B01D000F098
:100AD8006FFB00BFA037BD4680BD00BF018001008D
:100AE80080B58CB000AF07F1240300221A605A6069
:100AF8009A603B1D20220021184607F0B7F8444BA6
:100B08004FF0A0421A60424B4FF440325A60404BBB
:100B180000229A603E4B0022DA603D4B00221A61A7
:100B28003B4B01225A613A4B08229A61384B00220A
:100B38001A77374B01225A77354B04221A62344B05
:100B4800002283F82420324B0022DA62304B002244
:100B58001A632F4B002283F838202D4B0022DA63CA
:100B68002B4B002283F84020294801F023F9034643
:100B7800002B01D000F01CFB00237B6207F124034B
:100B88001946234802F0A4FC0346002B01D000F0CC
:100B98000FFB204B7B600623BB600023FB607F2399
:100BA8003B6104237B610023BB613B1D1946184848
:100BB80001F012FE0346002B01D000F0F9FA0C23D5
:100BC800BB603B1D1946124801F006FE0346002B88
:100BD80001D000F0EDFA1223BB603B1D19460C480A
:100BE80001F0FAFD0346002B01D000F0E1FA1823CA
:100BF800BB603B1D1946064801F0EEFD0346002B7D
:100C080001D000F0D5FA00BF3037BD4680BD00BF27
:100C18004C0500200200300480B58CB000AF07F10D
:100C2800240300221A605A609A603B1D202200218A
:100C3800184607F01BF8314B314A1A602F4B4FF416
:100C480040325A602D4B00229A602C4B0022DA6009
:100C58002A4B00221A61294B00225A61274B042291
:100C68009A61264B00221A77244B01225A77234B8C
:100C780001221A62214B002283F824201F4B0022F4
:100C8800DA621E4B00221A631C4B002283F83820BC
:100C98001A4B0022DA63194B002283F840201748C8
:100CA80001F088F80346002B01D000F081FA0023F8
:100CB8007B6207F124031946104802F009FC034639
:100CC800002B01D000F074FA0E4B7B600623BB604A
:100CD8000023FB607F233B6104237B610023BB610E
:100CE8003B1D1946054801F077FD0346002B01D04E
:100CF80000F05EFA00BF3037BD4680BDB805002061
:100D0800000400500200300480B58CB000AF3B46B0
:100D180030220021184606F0A9FF164B164A1A6021
:100D2800144802F0ECFD0346002B01D000F040FA15
:100D380002233B6000233B7100237B710023BB60CF
:100D48000023FB6000233B6100237B610423BB611C
:100D58000023FB613B4600221946064802F0D0FEFC
:100D68000346002B01D000F023FA00BF3037BD4600
:100D780080BD00BF880400200008005080B588B0FE
:100D880000AF07F1100300221A605A609A60DA6017
:100D98003B1D00221A605A609A601E4B4FF0804239
:100DA8001A601C4B00225A601A4B00229A60194B99
:100DB8004FF0FF32DA60174B00221A61154B002200
:100DC8009A61144804F04EFD0346002B01D000F050
:100DD800EFF94FF480533B6107F1100319460D48B2
:100DE80004F090FF0346002B01D000F0E1F9202326
:100DF8007B600023FB603B1D1946064805F0F6F9A9
:100E08000346002B01D000F0D3F900BF2037BD46C0
:100E180080BD00BF7807002080B588B000AF07F11B
:100E2800100300221A605A609A60DA603B1D0022A3
:100E38001A605A609A601D4B1D4A1A601B4B0022AB
:100E48005A601A4B00229A60184B4FF6FF72DA600C
:100E5800164B00221A61154B00229A61134804F0C0
:100E680001FD0346002B01D000F0A2F94FF4805396
:100E78003B6107F1100319460C4804F043FF034691
:100E8800002B01D000F094F920237B600023FB6045
:100E98003B1D1946054805F0A9F90346002B01D06A
:100EA80000F086F900BF2037BD4680BDFC04002055
:100EB800000C004080B584B000AF3B1D00221A60D2
:100EC8005A609A60144B154A1A60134B00225A60F4
:100ED800114B00229A60104B4FF6FF72DA600E4BEE
:100EE80000229A610C4804F0BDFC0346002B01D097
:100EF80000F05EF920237B600023FB603B1D194650
:100F0800054805F073F90346002B01D000F050F9AD
:100F180000BF1037BD4680BD2C07002000100040E0
:100F280080B584B000AF3B1D00221A605A609A60F9
:100F3800144B154A1A60134B00225A60114B0022B9
:100F48009A60104B4FF6FF72DA600E4B00229A61DE
:100F58000C4804F087FC0346002B01D000F028F968
:100F680020237B600023FB603B1D1946054805F0E4
:100F78003DF90346002B01D000F01AF900BF1037E5
:100F8800BD4680BDDC0700200014004080B588B055
:100F980000AF07F1100300221A605A609A60DA6005
:100FA8003B1D00221A605A609A60204B204A1A6042
:100FB8001E4B00225A601D4B00229A601B4B4FF6B5
:100FC800FF72DA60194B00221A61184B00225A612D
:100FD800164B00229A61154804F044FC0346002B86
:100FE80001D000F0E5F84FF480533B6107F110039E
:100FF80019460E4804F086FE0346002B01D000F087
:10100800D7F820237B600023BB600023FB603B1DD7
:101018001946064805F0EAF80346002B01D000F00F
:10102800C7F800BF2037BD4680BD00BF3C04002084
:101038000034014080B500AF224B234A1A60214B8F
:1010480047F612225A601F4B00229A601D4B00225D
:10105800DA601C4B00221A611A4B04225A61194BA0
:1010680000229A61174B0022DA61164B00221A629D
:10107800144B00225A62134B00229A62114805F061
:1010880091F90346002B01D000F092F800210D4899
:1010980006F0FDFC0346002B01D000F089F8002182
:1010A800084806F032FD0346002B01D000F080F816
:1010B800044806F0B3FC0346002B01D000F078F892
:1010C80000BF80BD240600200038014080B582B0F2
:1010D80000AF164B9B6C154A43F004039364134B03
:1010E8009B6C03F004037B607B68104B9B6C0F4A7E
:1010F80043F0010393640D4B9B6C03F001033B60C9
:101108003B68002200210B2002F0C5FB0B2002F0F7
:10111800DCFB002200210D2002F0BDFB0D2002F0B7
:10112800D4FB00BF0837BD4680BD00BF0010024099
:1011380080B588B000AF07F10C0300221A605A602E
:101148009A60DA601A61184BDB6C174A43F00103A6
:10115800D364154BDB6C03F00103BB60BB68124B17
:10116800DB6C114A43F00203D3640F4BDB6C03F0D2
:1011780002037B607B6800224FF400610B4803F098
:1011880025FB4FF40063FB6001233B6100237B6177
:101198000023BB6107F10C031946044803F094F9D6
:1011A80000BF2037BD4680BD001002400004004843
:1011B80080B400AF72B600BFFEE7000080B582B011
:1011C80000AF0F4B1B6E0E4A43F0010313660C4B26
:1011D8001B6E03F001037B607B68094B9B6D084A1B
:1011E80043F080539365064B9B6D03F080533B603F
:1011F8003B6803F0A7FB00BF0837BD4680BD00BFB2
:101208000010024080B58CB000AF786007F11C0375
:1012180000221A605A609A60DA601A617B681B685B
:10122800B3F1A04F50D1584BDB6C574A43F40053ED
:10123800D364554BDB6C03F40053BB61BB69524B61
:10124800DB6C514A43F00103D3644F4BDB6C03F072
:1012580001037B617B690F23FB6103233B6200234E
:101268007B6207F11C0319464FF0904003F02CF9FC
:10127800464B474A1A60454B05225A60434B0022A9
:101288009A60424B0022DA60404B80221A613F4B41
:101298004FF400725A613D4B4FF480629A613B4BA8
:1012A8002022DA61394B00221A62384802F0DAFD4E
:1012B8000346002B01D0FFF77BFF7B68334A5A6552
:1012C800324A7B6893625BE07B681B68314A9342D1
:1012D80056D12D4BDB6C2C4A43F48043D3642A4B04
:1012E800DB6C03F480433B613B69274BDB6C264A8C
:1012F80043F00203D364244BDB6C03F00203FB606E
:10130800FB680223FB6103233B6200237B6207F136
:101318001C031946204803F0D7F8204B204A1A60CE
:101328001E4B25225A601D4B00229A601B4B00223F
:10133800DA601A4B80221A61184B4FF400725A6116
:10134800164B4FF480629A61144B2022DA61134BDA
:1013580000221A62114802F085FD0346002B01D0D5
:10136800FFF726FF7B680D4A5A650C4A7B68936233
:10137800002200212F2002F08EFA2F2002F0A5FA79
:1013880000BF3037BD4680BD00100240B8060020BF
:101398000800024000040050000400489C0400209B
:1013A8003000024080B58AB000AF786007F11403BE
:1013B80000221A605A609A60DA601A617B681B68BA
:1013C8001D4A934234D11D4BDB6C1C4A43F48033D5
:1013D800D3641A4BDB6C03F480333B613B69174BD6
:1013E800DB6C164A43F00103D364144BDB6C03F047
:1013F8000103FB60FB6810237B610323BB610023AF
:10140800FB6107F1140319464FF0904003F05CF8B4
:1014180000220021362002F03EFA362002F055FA6A
:1014280000220021362002F036FA362002F04DFA6A
:1014380000BF2837BD4680BD00080050001002409C
:1014480080B588B000AF78607B681B68B3F1804FC7
:1014580014D1404B9B6D3F4A43F0010393653D4BCC
:101468009B6D03F00103FB61FB69002200211C2036
:1014780002F011FA1C2002F028FA66E07B681B686B
:10148800354A934214D1334B9B6D324A43F00803DB
:101498009365304B9B6D03F00803BB61BB69002269
:1014A8000021322002F0F7F9322002F00EFA4CE067
:1014B8007B681B68294A934214D1264B9B6D254AA9
:1014C80043F010039365234B9B6D03F010037B617E
:1014D8007B6900220021362002F0DDF9362002F077
:1014E800F4F932E07B681B681D4A934214D1194B0A
:1014F8009B6D184A43F020039365164B9B6D03F0D0
:1015080020033B613B6900220021372002F0C3F928
:10151800372002F0DAF918E07B681B68114A934219
:1015280013D10C4B1B6E0B4A43F400531366094B43
:101538001B6E03F40053FB60FB68002200212C2083
:1015480002F0A9F92C2002F0C0F900BF2037BD46EF
:1015580080BD00BF00100240000C00400010004099
:10156800001400400034014080B58AB000AF7860B4
:1015780007F1140300221A605A609A60DA601A614F
:101588007B681B682A4A93424DD12A4B1B6E294A15
:1015980043F480431366274B1B6E03F480433B617F
:1015A8003B69244BDB6C234A43F00103D364214B92
:1015B800DB6C03F00103FB60FB681E4BDB6C1D4A10
:1015C80043F00203D3641B4BDB6C03F00203BB60E4
:1015D800BB684FF480637B610223BB610023FB611E
:1015E80000233B6207237B6207F1140319464FF07F
:1015F800904002F069FF40237B610223BB61002316
:10160800FB6100233B6207237B6207F11403194641
:10161800094802F059FF00220021252002F03BF979
:10162800252002F052F900BF2837BD4680BD00BF13
:1016380000380140001002400004004880B400AFA8
:10164800FEE780B400AFFEE780B400AFFEE780B4E9
:1016580000AFFEE780B400AFFEE780B400AF00BF84
:10166800BD465DF8047B704780B400AF00BFBD463F
:101678005DF8047B704780B400AF00BFBD465DF8DD
:10168800047B704780B500AF00F0EEF800BF80BD66
:1016980080B500AF024802F0C8FD00BF80BD00BFA2
:1016A800B806002080B500AF024802F0BEFD00BFBA
:1016B80080BD00BF9C04002080B500AF024804F044
:1016C800A1F900BF80BD00BF7807002080B500AF3A
:1016D800024804F0FDFE00BF80BD00BF24060020C4
:1016E80080B500AF024804F08DF900BF80BD00BF8F
:1016F8003C04002080B500AF024800F0EBFD00BFBD
:1017080080BD00BFB805002080B500AF024804F0D6
:1017180079F900BF80BD00BFFC04002080B500AF90
:10172800034804F06FF9034802F05EF900BF80BD7A
:101738002C0700208804002080B500AF024804F080
:1017480061F900BF80BD00BFDC07002080B400AF96
:10175800064BD3F88830054A43F47003C2F8883042
:1017680000BFBD465DF8047B704700BF00ED00E098
:101778000D4885460D480E490E4A002302E0D4580C
:10178800C4500433C4188C42F9D30B4A0B4C0023C1
:1017980001E013600432A242FBD3FFF7D7FF06F043
:1017A80041FAFEF7B1FEFEE700000220000000202B
:1017B80014040020B87D000814040020300800201C
:1017C800FEE780B582B000AF0023FB71032002F072
:1017D80057F8002000F00EF80346002B02D0012332
:1017E800FB7101E0FFF7EAFCFB7918460837BD46B4
:1017F80080BD000080B584B000AF78600023FB7323
:10180800164B1B68002B22D0154B1A68134B1B680C
:101818004FF47A71B1FBF3F3B2FBF3F3184602F01D
:1018280062F80346002B0FD17B680F2B09D80022E2
:1018380079684FF0FF3002F02EF80A4A7B6813608F
:1018480007E00123FB7304E00123FB7301E001239C
:10185800FB73FB7B18461037BD4680BD1004002083
:10186800080400200C04002080B400AF054B1A685F
:10187800054B1B681344034A136000BFBD465DF85F
:10188800047B70472C0800201004002080B400AFAF
:10189800034B1B681846BD465DF8047B704700BFC4
:1018A8002C08002080B584B000AF7860FFF7EEFF09
:1018B800B8607B68FB60FB68B3F1FF3F04D0094B5D
:1018C8001B68FA681344FB6000BFFFF7DFFF02469E
:1018D800BB68D31AFA689A42F7D800BF00BF10371E
:1018E800BD4680BD1004002080B483B000AF78608E
:1018F80039607B689B6823F47C123B681A437B68D9
:101908009A6000BF0C37BD465DF8047B704780B411
:1019180083B000AF786039607B689B6823F0E07221
:101928003B681A437B689A6000BF0C37BD465DF878
:10193800047B704780B483B000AF78607B689B6895
:1019480003F0E07318460C37BD465DF8047B70471A
:1019580080B487B000AFF860B9607A603B60FB681C
:1019680060331A46BB689B0013447B617B691A6825
:10197800084B13407A6802F0F8413A680A43134367
:1019880043F000427B691A6000BF1C37BD465DF812
:10199800047B704700F0FF0380B485B000AF786027
:1019A80039607B6860331A463B689B001344FB60D0
:1019B800FB681B6803F0F84318461437BD465DF80A
:1019C800047B704780B487B000AFF860B9607A6074
:1019D800FB6860331A46BB689B0013447B617B69D4
:1019E8001B6823F000427B681A437B691A6000BFBA
:1019F8001C37BD465DF8047B704780B487B000AFE4
:101A0800F860B9607A60FB6860331A46BB689B006F
:101A180013447B617B691B6823F080727B681A43DF
:101A28007B691A6000BF1C37BD465DF8047B7047B0
:101A380080B487B000AFF860B9607A60FB68603343
:101A48001A46BB689B0013447B617B691B6823F0C3
:101A580000727B681A437B691A6000BF1C37BD4659
:101A68005DF8047B704780B483B000AF786039605C
:101A78007B685B6923F000423B681A437B685A61C4
:101A880000BF0C37BD465DF8047B704780B483B057
:101A980000AF78607B68DB6803F44063002B01D1FA
:101AA800012300E0002318460C37BD465DF8047B8F
:101AB800704780B487B000AFF860B9607A60FB689F
:101AC80030331A46BB681B0A9B0003F00C0313440F
:101AD8007B617B691A68BB6803F01F031F2101FA49
:101AE80003F3DB431A407B689B0E03F01F01BB68BE
:101AF80003F01F0301FA03F31A437B691A6000BF5E
:101B08001C37BD465DF8047B704780B483B000AFD6
:101B180078607B68DB6C03F4C073002B01D1012370
:101B280000E0002318460C37BD465DF8047B70477B
:101B380080B487B000AFF860B9607A60FB6814338E
:101B48001A46BB685B0E9B0003F0040313447B61D9
:101B58007B691A68BB681B0D03F01F03072101FA94
:101B680003F3DB431A40BB681B0D03F01F037968BE
:101B780001FA03F31A437B691A6000BF1C37BD469C
:101B88005DF8047B7047000080B485B000AFF86052
:101B9800B9607A60FB68D3F8B020BB68C3F312035E
:101BA800DB431A407B6803F018030849D940BB6837
:101BB8000B40C3F312031A43FB68C3F8B02000BFFD
:101BC8001437BD465DF8047B704700BFFFFF070070
:101BD80080B483B000AF78607B689B6803F01F0314
:101BE80018460C37BD465DF8047B704780B483B057
:101BF80000AF78607B689B6803F4604318460C3735
:101C0800BD465DF8047B704780B483B000AF786050
:101C18007B689B6823F0204323F03F037A68936036
:101C280000BF0C37BD465DF8047B704780B483B0B5
:101C380000AF78607B689B6803F00053B3F1005FE6
:101C480001D1012300E0002318460C37BD465DF89A
:101C5800047B704780B483B000AF78607B689B6872
:101C680023F0104323F03F0343F080527B689A60CF
:101C780000BF0C37BD465DF8047B704780B483B065
:101C880000AF78607B689B6803F08053B3F1805F96
:101C980001D1012300E0002318460C37BD465DF84A
:101CA800047B704780B483B000AF78607B689B6822
:101CB80023F0004323F03F0343F001027B689A605E
:101CC80000BF0C37BD465DF8047B704780B483B015
:101CD80000AF78607B689B6823F0004323F03F03E4
:101CE80043F002027B689A6000BF0C37BD465DF87E
:101CF800047B704780B483B000AF78607B689B68D2
:101D080003F00103012B01D1012300E00023184651
:101D18000C37BD465DF8047B704780B483B000AFD4
:101D280078607B689B6803F00203022B01D10123D2
:101D380000E0002318460C37BD465DF8047B704769
:101D480080B483B000AF78607B689B6823F0004361
:101D580023F03F0343F004027B689A6000BF0C370E
:101D6800BD465DF8047B704780B483B000AF7860EF
:101D78007B689B6803F00403042B01D1012300E076
:101D8800002318460C37BD465DF8047B704780B4C5
:101D980083B000AF78607B689B6803F00803082B6A
:101DA80001D1012300E0002318460C37BD465DF839
:101DB800047B704790B589B000AF78600023FB774B
:101DC8000023BB607B68002B01D10123AFE17B6856
:101DD8005B69002B7B68DB6D002B09D17868FFF706
:101DE80011FA7B6800221A667B68002283F8582063
:101DF8007B681B681846FFF719FF0346002B04D0C1
:101E08007B681B681846FFF7FFFE7B681B6818464F
:101E1800FFF734FF0346002B15D17B681B68184673
:101E2800FFF718FF9F4B1B689B099F4AA2FB0323E0
:101E38009B0901335B00BB6002E0BB68013BBB60F0
:101E4800BB68002BF9D17B681B681846FFF716FFA3
:101E58000346002B0DD17B68DB6D43F010027B68D5
:101E6800DA657B681B6E43F001027B681A66012302
:101E7800FB777B681B681846FFF776FF78617B68FD
:101E8800DB6D03F01003002B40F048817B69002BC9
:101E980040F044817B68DB6D23F4817343F00202D8
:101EA8007B68DA657B681B681846FFF723FF0346E3
:101EB800002B41D17B681B68B3F1A04F04D07B682D
:101EC8001B687A4A93420FD14FF0A040FFF712FFE8
:101ED80004467648FFF70EFF03462343002B0CBF4A
:101EE80001230023DBB212E07148FFF703FF044629
:101EF8007048FFF7FFFE03461C436F48FFF7FAFEE2
:101F080003462343002B0CBF01230023DBB2002B25
:101F180012D07B681B68B3F1A04F04D07B681B68A4
:101F2800624A934201D1654A00E0654A7B685B6872
:101F380019461046FFF7D8FC7B685B7F5A037B681D
:101F4800DB6B1A437B68DB681A437B689B681A4320
:101F58007B6893F824301B041343BB617B6893F8B8
:101F68002430012B06D17B689B6A013B5B04BA696C
:101F78001343BB617B68DB6A002B09D07B68DB6A93
:101F880003F478727B681B6B1343BA691343BB6114
:101F98007B681B68DA684B4B13407A681268B9692A
:101FA8000B43D3607B681B681B6923F040617B6827
:101FB8005A6B7B681B680A431A617B681B68184662
:101FC800FFF7D2FE38617B681B681846FFF7DFFE13
:101FD800F8603B69002B7FD1FB68002B7CD17B68C4
:101FE8001B7F9A037B6893F838305B001343BB610F
:101FF8007B681B68DB6823F4804323F002037A685C
:102008001268B9690B43D3607B681B69002B17D032
:102018007B681B681A697B681B6842F480321A6106
:102028007B681B68D3F8C03023F47F5323F03F0349
:102038007A6811697A6812680B43C2F8C03013E0F5
:102048007B681B681A697B681B6822F480321A61F6
:102058007B681B68D3F8C0307A68126823F47F5312
:1020680023F03F03C2F8C0307B6893F84030012B5F
:102078002AD17B681B681B6923F4FF6323F00403E0
:102088007A68516C7A68926C11437A68D26C114301
:102098007A68126D0A431A437B681B6842F0010292
:1020A8001A6119E008040020632D3E050001005064
:1020B80000040050000500500006005000030050C6
:1020C800000700500740F0FF7B681B681A697B68AF
:1020D8001B6822F001021A617B685B69012B0CD135
:1020E8007B681B681B6B23F00F017B681B6A5A1EF9
:1020F8007B681B680A431A6307E07B681B681A6BD6
:102108007B681B6822F00F021A637B68DB6D23F083
:10211800030343F001027B68DA6507E07B68DB6D47
:1021280043F010027B68DA650123FB77FB7F1846D2
:102138002437BD4690BD00BF80B586B000AFF860BB
:10214800B9607A60FB681B68B3F1A04F04D0FB68E4
:102158001B68584A934201D1574B00E0574B184629
:10216800FFF736FD3861FB681B681846FFF7FCFD72
:102178000346002B40F09680FB6893F85830012BFB
:1021880001D1022391E0FB68012283F858203B69C2
:10219800002B05D03B69052B02D03B69092B7AD16E
:1021A800F86800F059FF0346FB75FB7D002B6DD1E5
:1021B800FB68DB6D23F4706323F0010343F4807242
:1021C800FB68DA65FB681B683A4A934209D0FB68EA
:1021D8001B683B4A934202D0FB681B6803E0394BFB
:1021E80001E04FF0A043FA681268934202D03B69BD
:1021F800002B05D1FB68DB6D23F48012FB68DA65E0
:10220800FB68DB6D03F48053002B06D0FB681B6E64
:1022180023F00602FB681A6602E0FB6800221A66D1
:10222800FB685B6D284ADA62FB685B6D274A1A63B4
:10223800FB685B6D264A5A63FB681B681C221A60A0
:10224800FB68002283F85820FB681B685A68FB6803
:102258001B6842F010025A60FB681B68DA68FB686A
:102268001B6842F00102DA60FB68586DFB681B6866
:1022780040331946BA687B6801F09CFE0346FB753B
:10228800FB681B681846FFF75BFD0DE0FB68002242
:1022980083F8582008E00123FB75FB68002283F8C7
:1022A800582001E00223FB75FB7D18461837BD4610
:1022B80080BD00BF0001005000030050000700501F
:1022C8000005005000040050E3310008BB3200084C
:1022D800D732000880B58AB000AF786000237B62EF
:1022E8007B681B681B68FB617B681B685B68BB615C
:1022F8007B681B68B3F1A04F04D07B681B68954AC4
:10230800934201D1944B00E0944B1846FFF760FCD0
:102318007861FB6903F00203002B17D0BB6903F057
:102328000203002B12D07B68DB6D03F01003002B37
:1023380005D17B68DB6D43F400627B68DA657868F9
:1023480001F0BCF87B681B6802221A60FB6903F085
:102358000403002B04D0BB6903F00403002B0BD14A
:10236800FB6903F00803002B00F09480BB6903F0BD
:102378000803002B00F08E807B68DB6D03F01003F0
:10238800002B05D17B68DB6D43F400727B68DA654E
:102398007B681B681846FFF779FB0346002B72D051
:1023A8007B681B686B4A934209D07B681B686C4A40
:1023B800934202D07B681B6803E06A4B01E04FF050
:1023C800A0437A681268934208D07B69002B05D035
:1023D8007B69052B02D07B69092B04D17B681B68BC
:1023E800DB683B6214E07B681B685A4A934209D059
:1023F8007B681B685A4A934202D07B681B6803E0DB
:10240800584B01E04FF0A0433B613B69DB683B62FE
:102418003B6A03F40053002B35D17B681B681B68AB
:1024280003F00803082B2ED17B681B681846FFF7BA
:102438009BFC0346002B1AD17B681B685A687B6893
:102448001B6822F00C025A607B68DB6D23F48072F3
:102458007B68DA657B68DB6D03F48053002B12D14F
:102468007B68DB6D43F001027B68DA650BE07B6813
:10247800DB6D43F010027B68DA657B681B6E43F006
:1024880001027B681A66786800F07EF97B681B6831
:102498000C221A60FB6903F02003002B04D0BB69EF
:1024A80003F02003002B0BD1FB6903F04003002B42
:1024B80000F0B280BB6903F04003002B00F0AC8051
:1024C8007B68DB6D03F01003002B05D17B68DB6DA7
:1024D80043F400527B68DA657B681B681846FFF78F
:1024E80014FBF8607B681B681846FFF7CFFAB860E2
:1024F8007B681B68174A934209D07B681B68184A97
:10250800934202D07B681B6803E0164B01E04FF052
:10251800A0437A681268934208D07B69002B05D0E3
:102528007B69062B02D07B69072B04D17B681B686B
:10253800DB683B621EE07B681B68064A934213D047
:102548007B681B68064A934202D07B681B680DE0D3
:10255800044B0BE00001005000030050000700503E
:1025680000050050000400504FF0A0433B613B6958
:10257800DB683B62FB68002B47D03B6A03F00073C3
:10258800002B07D0BB68002B3FD03B6A03F40053F5
:10259800002B3AD17B681B681B6803F04003402B73
:1025A80033D13B6A03F40013002B2ED17B681B68E0
:1025B8001846FFF7ECFB0346002B1AD17B681B6813
:1025C8005A687B681B6822F060025A607B68DB6D82
:1025D80023F480527B68DA657B68DB6D03F48073D3
:1025E800002B12D17B68DB6D43F001027B68DA6552
:1025F8000BE07B68DB6D43F010027B68DA657B6873
:102608001B6E43F001027B681A66786800F02EFFA3
:102618007B681B6860221A60FB6903F08003002B4B
:1026280011D0BB6903F08003002B0CD07B68DB6DF5
:1026380043F480327B68DA65786800F0B9F87B6823
:102648001B6880221A60FB6903F48073002B12D088
:10265800BB6903F48073002B0DD07B68DB6D43F4FA
:1026680000327B68DA65786800F014FF7B681B68C5
:102678004FF480721A60FB6903F40073002B12D0C8
:10268800BB6903F40073002B0DD07B68DB6D43F44A
:1026980080227B68DA65786800F006FF7B681B6833
:1026A8004FF400721A60FB6903F01003002B43D04B
:1026B800BB6903F01003002B3ED07B68DB6B002B5B
:1026C80002D101237B6221E07B69002B15D07B6856
:1026D8001B68B3F1A04F04D07B681B68274A93425C
:1026E80001D1274B00E0274B1846FFF77FFA034636
:1026F800002B0BD001237B6208E07B681B68DB683A
:1027080003F00103002B01D001237B627B6A012BBC
:102718000ED17B68DB6D43F480627B68DA657B6889
:102728001B6E43F002027B681A66786800F04AF86C
:102738007B681B6810221A60FB6903F48063002B16
:1027480018D0BB6903F48063002B13D07B68DB6D62
:1027580043F480427B68DA657B681B6E43F00802AD
:102768007B681A667B681B684FF480621A60786819
:1027780000F086FE00BF2837BD4680BD000100502E
:10278800000300500007005080B483B000AF7860A9
:1027980000BF0C37BD465DF8047B704780B483B03A
:1027A80000AF786000BF0C37BD465DF8047B70470A
:1027B80080B483B000AF786000BF0C37BD465DF8C9
:1027C800047B704780B483B000AF786000BF0C37DB
:1027D800BD465DF8047B704780B5B6B000AF786041
:1027E8003960002387F8D7300023FB607B6893F8B3
:1027F8005830012B02D1022300F013BC7B68012260
:1028080083F858207B681B681846FFF7ADFA034623
:10281800002B40F0F3837B6818683B6859683B6875
:102828001B681A46FFF745F97B681B681846FFF7CF
:102838009BFAC7F8D0007B681B681846FFF7A7FA11
:10284800C7F8CC00D7F8D030002B40F0D981D7F8A2
:10285800CC30002B40F0D4813B689B68B3F1004F2B
:102868000FD17B6818683B681B6800221946FFF780
:102878005FF97B681B684FF000411846FFF7F3F8D3
:102888000EE07B6818683B6819683B689B681A46C5
:10289800FFF74EF97B681B6800211846FFF7E3F83D
:1028A8003B685A697B681B68DB68DB0803F0030335
:1028B8005B0002FA03F3C7F8C8303B681B69042BB6
:1028C80022D07B6818683B6819693B681A68D7F892
:1028D800C830FFF73DF87B6818683B6819693B68A2
:1028E8009B691A46FFF789F87B6818683B6819697D
:1028F8003B681B7F012B02D14FF0007300E00023DF
:102908001A46FFF795F87BE17B681B68002118469B
:10291800FFF742F80346C3F31203002B0AD17B6882
:102928001B6800211846FFF737F803469B0E03F093
:102938001F021EE07B681B6800211846FFF72CF871
:102948000346C7F8BC30D7F8BC3093FAA3F3C7F8EE
:10295800B830D7F8B830C7F8C030D7F8C030002B37
:1029680001D1202304E0D7F8C030B3FA83F3DBB2F7
:102978001A463B681B68C3F31203002B05D13B685A
:102988001B689B0E03F01F0318E03B681B68C7F821
:10299800B030D7F8B03093FAA3F3C7F8AC30D7F813
:1029A800AC30C7F8B430D7F8B430002B01D12023AD
:1029B80004E0D7F8B430B3FA83F3DBB29A4206D115
:1029C8007B681B68002200211846FEF7FBFF7B6826
:1029D8001B6801211846FEF7DFFF0346C3F3120305
:1029E800002B0AD17B681B6801211846FEF7D4FF2B
:1029F80003469B0E03F01F021EE07B681B68012143
:102A08001846FEF7C9FF0346C7F8A430D7F8A43024
:102A180093FAA3F3C7F8A030D7F8A030C7F8A830C6
:102A2800D7F8A830002B01D1202304E0D7F8A8302C
:102A3800B3FA83F3DBB21A463B681B68C3F312038D
:102A4800002B05D13B681B689B0E03F01F0318E0A1
:102A58003B681B68C7F89830D7F8983093FAA3F307
:102A6800C7F89430D7F89430C7F89C30D7F89C3022
:102A7800002B01D1202304E0D7F89C30B3FA83F36C
:102A8800DBB29A4206D17B681B68002201211846F6
:102A9800FEF798FF7B681B6802211846FEF77CFF4B
:102AA8000346C3F31203002B0AD17B681B6802217B
:102AB8001846FEF771FF03469B0E03F01F021EE047
:102AC8007B681B6802211846FEF766FF0346C7F8B5
:102AD8008C30D7F88C3093FAA3F3C7F88830D7F83E
:102AE8008830C7F89030D7F89030002B01D12023D8
:102AF80004E0D7F89030B3FA83F3DBB21A463B68A8
:102B08001B68C3F31203002B05D13B681B689B0E9F
:102B180003F01F0316E03B681B68C7F88030D7F83E
:102B2800803093FAA3F3FB67FB6FC7F88430D7F8BC
:102B38008430002B01D1202304E0D7F88430B3FA85
:102B480083F3DBB29A4206D17B681B68002202211C
:102B58001846FEF737FF7B681B6803211846FEF707
:102B68001BFF0346C3F31203002B0AD17B681B68C3
:102B780003211846FEF710FF03469B0E03F01F02C1
:102B880017E07B681B6803211846FEF705FF03461C
:102B98007B677B6F93FAA3F33B673B6FBB67BB6FA6
:102BA800002B01D1202303E0BB6FB3FA83F3DBB220
:102BB8001A463B681B68C3F31203002B05D13B6818
:102BC8001B689B0E03F01F0311E03B681B68BB6684
:102BD800BB6E93FAA3F37B667B6EFB66FB6E002BE2
:102BE80001D1202303E0FB6EB3FA83F3DBB29A42F0
:102BF80006D17B681B68002203211846FEF7E2FE17
:102C08007B681B681846FFF775F80346002B40F0F1
:102C18003D817B6818683B6819683B68DB681A4621
:102C2800FEF7B2FF3B68DB68A24A934240F02E8170
:102C38007B6818683B681B68C3F31203002B0BD131
:102C48003B681B689B0E013303F01F03092B94BFDD
:102C580001230023DBB219E03B681B68FB65FB6DB1
:102C680093FAA3F3BB65BB6D3B663B6E002B01D1AA
:102C7800202303E03B6EB3FA83F3DBB2013303F0A6
:102C88001F03092B94BF01230023DBB2002B79D04B
:102C98003B681B68C3F31203002B07D13B681B6812
:102CA8009B0E01339B0603F0F84215E03B681B6856
:102CB8003B653B6D93FAA3F3FB64FB6C7B657B6D13
:102CC800002B01D1202303E07B6DB3FA83F3DBB241
:102CD80001339B0603F0F8423B681B68C3F31203F9
:102CE800002B09D13B681B689B0E013303F01F03BF
:102CF800012101FA03F317E03B681B687B647B6CD6
:102D080093FAA3F33B643B6CBB64BB6C002B01D10F
:102D1800202303E0BB6CB3FA83F3DBB2013303F087
:102D28001F03012101FA03F342EA03013B681B6810
:102D3800C3F31203002B0AD13B681B689B0E0133B7
:102D480003F01F0213465B0013441B0518E03B68A1
:102D58001B68BB63BB6B93FAA3F37B637B6BFB635F
:102D6800FB6B002B01D1202303E0FB6BB3FA83F349
:102D7800DBB2013303F01F0213465B0013441B054B
:102D88000B437EE03B681B68C3F31203002B07D19B
:102D98003B681B689B0E01339B0603F0F84215E065
:102DA8003B681B68FB62FB6A93FAA3F3BB62BB6ACE
:102DB8003B633B6B002B01D1202303E03B6BB3FA51
:102DC80083F3DBB201339B0603F0F8423B681B68D0
:102DD800C3F31203002B09D13B681B689B0E013318
:102DE80003F01F03012101FA03F317E03B681B6896
:102DF8003B623B6A93FAA3F3FB61FB697B627B6AE4
:102E0800002B01D1202303E07B6AB3FA83F3DBB202
:102E1800013303F01F03012101FA03F342EA03011E
:102E28003B681B68C3F31203002B0DD13B681B687A
:102E38009B0E013303F01F0213465B0013441E3B35
:102E48001B0543F000731BE03B681B687B617B69D3
:102E580093FAA3F33B613B69BB61BB69002B01D1CA
:102E6800202303E0BB69B3FA83F3DBB2013303F039
:102E78001F0213465B0013441E3B1B0543F00073FF
:102E88000B433A6892681946FEF752FE3B681A6887
:102E9800094B1340002B00F0BE807B681B68B3F120
:102EA800A04F04D07B681B68044A93420AD1044BA4
:102EB80009E000BF00007F400000088000010050CA
:102EC80000030050594B1846FEF734FDC7F8C400FC
:102ED8003B681B68564A934204D03B681B68554AB6
:102EE80093423AD1D7F8C43003F40003002B34D10D
:102EF8007B681B68B3F1A04F05D07B681B684E4AFE
:102F0800934240F085807B681B68B3F1A04F04D0E2
:102F18007B681B68494A934201D1494A00E0434A09
:102F2800D7F8C43043F4000319461046FEF7EFFC07
:102F3800444B1B689B09444AA2FB03239B095A1C68
:102F480013465B0013449B00FB6002E0FB68013BF7
:102F5800FB60FB68002BF9D15AE03B681B683B4AD1
:102F6800934225D1D7F8C43003F08073002B1FD1CA
:102F78007B681B68314A934204D17B681B68344ADA
:102F8800934247D07B681B68B3F1A04F04D07B689D
:102F98001B682A4A934201D1294A00E0234AD7F8FC
:102FA800C43043F0807319461046FEF7B0FC31E098
:102FB8003B681B68274A93422DD1D7F8C43003F4E5
:102FC8008003002B27D17B681B681C4A934222D0C0
:102FD8007B681B68B3F1A04F04D07B681B68174A55
:102FE800934201D1164A00E0104AD7F8C43043F49E
:102FF800800319461046FEF78AFC0CE07B68DB6DFF
:1030080043F020027B68DA65012387F8D73002E0B5
:1030180000BF00E000BF7B68002283F8582097F8C3
:10302800D7301846D837BD4680BD00BF00070050CE
:10303800000021C31000C09000060050000100509D
:103048000003005008040020632D3E05000052C70D
:1030580000050050000084CB80B584B000AF7860D4
:103068007B681B681846FEF745FE0346002B4DD1CA
:103078007B681B689A68284B1340002B0DD07B682F
:10308800DB6D43F010027B68DA657B681B6E43F0EA
:1030980001027B681A66012339E07B681B681846C1
:1030A800FEF700FEFEF7F2FBF86028E07B681B687D
:1030B8001846FEF71FFE0346002B04D17B681B68E9
:1030C8001846FEF7EFFDFEF7E1FB0246FB68D31A50
:1030D800022B14D97B681B681B6803F00103012BC2
:1030E8000DD07B68DB6D43F010027B68DA657B6886
:1030F8001B6E43F001027B681A66012307E07B68B8
:103108001B681B6803F00103012BCFD1002318466D
:103118001037BD4680BD00BF3F00008080B584B039
:1031280000AF78607B681B681846FEF7F6FDF8600C
:103138007B681B681846FEF7DDFD0346002B47D069
:10314800FB68002B44D17B681B689B6803F00D0368
:10315800012B0CD17B681B681846FEF7B7FD7B680E
:103168001B6803221A60FEF791FBB86029E07B68B0
:10317800DB6D43F010027B68DA657B681B6E43F0F9
:1031880001027B681A66012323E0FEF77FFB0246F3
:10319800BB68D31A022B14D97B681B689B6803F0A1
:1031A8000103002B0DD07B68DB6D43F010027B68B8
:1031B800DA657B681B6E43F001027B681A6601239F
:1031C80007E07B681B689B6803F00103002BDCD1D8
:1031D800002318461037BD4680BD80B584B000AFC7
:1031E80078607B689B6AFB60FB68DB6D03F05003CB
:1031F800002B4BD1FB68DB6D43F40072FB68DA658A
:10320800FB681B681B6803F00803002B21D0FB68D0
:103218001B681846FEF73AFC0346002B32D0FB68C1
:103228001B68DB6803F40053002B2BD1FB68DB6DB4
:1032380023F48072FB68DA65FB68DB6D03F4805366
:10324800002B1FD1FB68DB6D43F00102FB68DA65D8
:1032580018E0FB681B68DB6803F00203002B11D140
:10326800FB68DB6D23F48072FB68DA65FB68DB6D55
:1032780003F48053002B05D1FB68DB6D43F001029A
:10328800FB68DA65F868FFF77FFA0EE0FB68DB6D2C
:1032980003F01003002B03D0F868FFF793FA04E05B
:1032A800FB685B6D5B6B7868984700BF1037BD465D
:1032B80080BD80B584B000AF78607B689B6AFB6096
:1032C800F868FFF76BFA00BF1037BD4680BD80B5C0
:1032D80084B000AF78607B689B6AFB60FB68DB6D3D
:1032E80043F04002FB68DA65FB681B6E43F004029A
:1032F800FB681A66F868FFF765FA00BF1037BD4625
:1033080080BD80B483B000AF78607B689B6803F0B1
:103318000103012B01D1012300E0002318460C37DB
:10332800BD465DF8047B704780B483B000AF786019
:1033380039607B689B6823F0404323F03F033A6879
:1033480002F08042134343F000427B689A6000BF5A
:103358000C37BD465DF8047B704780B483B000AF7E
:1033680078607B689B6803F00043B3F1004F01D19C
:10337800012300E0002318460C37BD465DF8047BA6
:10338800704780B483B000AF78607B689B6803F0B7
:103398000403042B01D1012300E0002318460C3755
:1033A800BD465DF8047B704780B584B000AF786097
:1033B80039600023BB607B6893F85830012B01D13A
:1033C80002234DE07B68012283F858207868FFF7D4
:1033D800A5FE0346FB73FB7B002B36D17B68DB6DB8
:1033E80023F4885323F0020343F002027B68DA6572
:1033F8007B681B6839681846FFF796FF14E0BB68BE
:103408000133BB60BB68184A93420DD97B68DB6DFA
:1034180023F0120343F010027B68DA657B68002210
:1034280083F8582001231BE07B681B681846FFF7C8
:1034380094FF0346002BE2D17B68DB6D23F0030386
:1034480043F001027B68DA6505E07B68DB6D43F0D9
:1034580010027B68DA657B68002283F85820FB7BC2
:1034680018461037BD4680BD01DE040080B483B025
:1034780000AF786000BF0C37BD465DF8047B70472D
:1034880080B483B000AF786000BF0C37BD465DF8EC
:10349800047B704780B483B000AF786000BF0C37FE
:1034A800BD465DF8047B704780B483B000AF786098
:1034B80000BF0C37BD465DF8047B704780B483B00D
:1034C80000AF786000BF0C37BD465DF8047B7047DD
:1034D80090B5A1B000AF78603960002387F87F30DD
:1034E8007B6893F85830012B01D10223E7E07B6811
:1034F800012283F8582000237B660023BB667B6883
:103508001B68B3F1A04F02D16F4BBB6009E07B6829
:103518001B686E4A934202D16D4BBB6001E00023E9
:10352800BB60BB68002B0BD17B68DB6D43F02002CE
:103538007B68DA657B68002283F858200123BEE0A7
:10354800BB681846FFF71DFFB8677B681B681846FD
:10355800FFF717FF0346002B40F0A080BB6F002B3E
:1035680040F09C807B681B68B3F1A04F04D07B6857
:103578001B68554A934201D1564B00E0564B7B6776
:103588003B681B68002B4BD07B6F9B6823F4604221
:103598003B6859687B6893F838305B030B431A43E0
:1035A8007B6F9A607B681B68B3F1A04F04D07B687F
:1035B8001B68454A93420FD14FF0A040FFF7A1FE88
:1035C80004464148FFF79DFE03462343002B0CBFEA
:1035D80001230023DBB212E03C48FFF792FE0446C9
:1035E8003B48FFF78EFE03461C433C48FFF789FE25
:1035F80003462343002B0CBF01230023DBB2002B1F
:1036080056D07B6F9B6823F4716323F00F033A68ED
:1036180011683A6892680A431A437B6F9A6047E0D8
:103628007B6F9B6823F460427B6F9A607B681B68A2
:10363800B3F1A04F04D07B681B68234A93420FD193
:103648004FF0A040FFF75DFE04461F48FFF759FE04
:1036580003462343002B0CBF01230023DBB212E0F7
:103668001A48FFF74EFE04461948FFF74AFE03467C
:103678001C431A48FFF745FE03462343002B0CBFA3
:1036880001230023DBB2002B12D07B6F9B6823F44D
:10369800716323F00F037A6F936009E07B68DB6D39
:1036A80043F020027B68DA65012387F87F3000E069
:1036B80000BF7B68002283F8582097F87F301846AF
:1036C8008437BD4690BD00BF000100500004005083
:1036D800000500500003005000070050000600508D
:1036E80080B485B000AF78607B6803F00703FB60A7
:1036F8000C4BDB68BB60BA684FF6FF031340BB6036
:10370800FB681A02BB68134343F0BF6343F40033FA
:10371800BB60044ABB68D36000BF1437BD465DF880
:10372800047B704700ED00E080B400AF044BDB6819
:103738001B0A03F007031846BD465DF8047B704773
:1037480000ED00E080B483B000AF0346FB7197F949
:103758000730002B0BDBFB7903F01F02074997F9B1
:1037680007305B09012000FA02F241F8232000BF6C
:103778000C37BD465DF8047B704700BF00E100E0F0
:1037880080B483B000AF03463960FB7197F9073006
:10379800002B0ADB3B68DAB20C4997F907301201B3
:1037A800D2B20B4483F800230AE03B68DAB2084936
:1037B800FB7903F00F03043B1201D2B20B441A76D3
:1037C80000BF0C37BD465DF8047B704700E100E0A0
:1037D80000ED00E080B489B000AFF860B9607A60AD
:1037E800FB6803F00703FB61FB69C3F10703042BC4
:1037F80028BF0423BB61FB690433062B02D9FB698C
:10380800033B00E000237B614FF0FF32BB6902FA03
:1038180003F3DA43BB681A407B699A404FF0FF31E3
:103828007B6901FA03F3D9437B680B4013431846BD
:103838002437BD465DF8047B7047000080B582B030
:1038480000AF78607B68013BB3F1807F01D301232F
:103858000FE00A4A7B68013B53600F214FF0FF30AD
:10386800FFF78EFF054B00229A60044B07221A606F
:10387800002318460837BD4680BD00BF10E000E0B1
:1038880080B582B000AF78607868FFF729FF00BF85
:103898000837BD4680BD80B586B000AF0346B96025
:1038A8007A60FB73FFF740FF78617A68B9687869D6
:1038B800FFF790FF024697F90F3011461846FFF7B9
:1038C8005FFF00BF1837BD4680BD80B582B000AF2E
:1038D8000346FB7197F907301846FFF733FF00BF1F
:1038E8000837BD4680BD80B582B000AF7860786883
:1038F800FFF7A4FF034618460837BD4680BD80B5CC
:1039080082B000AF78607B68002B01D1012314E0FE
:103918007B681B79DBB2002B05D17B6800225A71CA
:103928007868FDF73FFD7B6802221A717B680022E8
:103938001A617B6801221A71002318460837BD46B0
:1039480080BD80B582B000AF786039607B685B79F4
:10395800012B01D1022343E07B6801225A717B6865
:1039680002221A717B681B6819683B6803F0100310
:1039780001229A407B681B680A431A600120FDF700
:1039880091FF3B68002B0FD17B681B681B6803F015
:103998003E03022B1DD17B681B685A687B681B6835
:1039A80042F001025A6014E07B681B681B6803F44C
:1039B80078123B6803F01003022101FA03F39A42DC
:1039C80007D17B681B685A687B681B6842F0020253
:1039D8005A607B6801221A717B6800225A710023A1
:1039E80018460837BD4680BD80B582B000AF786004
:1039F8007B681B681B6803F40053B3F5005F20D194
:103A08007B681B685B6B03F40053B3F5005F18D148
:103A18007B6804221A717B681B6943F001027B688A
:103A28001A617B681B684FF400525A637B681B68F5
:103A38001A687B681B6822F480521A60786800F064
:103A480055F87B681B681B6803F00053B3F1005FEF
:103A580020D17B681B685B6B03F00053B3F1005FF8
:103A680018D17B6804221A717B681B6943F0020233
:103A78007B681A617B681B684FF000525A637B6849
:103A88001B681A687B681B6822F080521A60786885
:103A980000F0DEF900BF0837BD4680BD80B487B0AE
:103AA80000AFF860B9607A603B6000237B61FB6817
:103AB8001B68DB6BFB681B687B61BB68002B05D14F
:103AC8007A697B68134408337B6104E07A697B6810
:103AD800134414337B617B691A463B6813600023E7
:103AE80018461C37BD465DF8047B704780B483B028
:103AF80000AF786000BF0C37BD465DF8047B7047A7
:103B080080B58AB000AFF860B9607A60FB685B790D
:103B1800012B01D1022392E1FB6801225A71FB6853
:103B280002221A71BB689B68042B74D1FDF7AEFEA4
:103B3800F8617B68002B34D111E0FDF7A7FE02463F
:103B4800FB69D31A012B0AD9FB681B6943F00802E9
:103B5800FB681A61FB6803221A7103236FE1FB6893
:103B68001B685B6B03F40043002BE6D10120FDF7D3
:103B780099FEFB681B68BA68526A1A641EE0FDF772
:103B880085FE0246FB69D31A012B0AD9FB681B691B
:103B980043F00802FB681A61FB6803221A710323C9
:103BA8004DE1FB681B685B6B002BE8DB0120FDF730
:103BB80079FEFB681B68BA68526A5A64FB681B681E
:103BC8009A6C7B6803F0100340F2FF3101FA03F3AB
:103BD800DB4302EA0301BB689A6A7B6803F01003BF
:103BE8009A40FB681B680A439A64FB681B68DA6C96
:103BF8007B6803F01003FF2101FA03F3DB4302EAB9
:103C08000301BB68DA6A7B6803F010039A40FB681B
:103C18001B680A43DA64BB68DB69012B1DD1FB68AA
:103C28001B689B6B7B627B6803F010031F2202FA00
:103C380003F3DB437A6A13407B62BB681B6ABB6190
:103C48007B6803F01003BA6902FA03F37A6A134334
:103C58007B62FB681B687A6A9A63FB681B68DB6B8C
:103C68007B627B6803F01003072202FA03F3DB434D
:103C78007A6A13407B62BB689B69012B02D10023DF
:103C88003B620FE0BB689B69022B02D101233B62B8
:103C980008E0BB685B69002B02D101233B6201E0AD
:103CA80000233B62BB689A68BB685B6913433A6A46
:103CB8001343BB617B6803F010034FF4807202FA70
:103CC80003F3DB437A6A13407B62BB681B79012BE1
:103CD80002D14FF4807300E00023BA691343BB613B
:103CE8007B6803F010034FF4007202FA03F3DB431E
:103CF8007A6A13407B62BB685B79012B02D14FF46F
:103D0800007300E00023BA691343BB617B6A23F4A4
:103D180040437B62BB681B68022B14D101F0D8FAC0
:103D280078617B69484A934204D97B6A43F400432B
:103D38007B620FE07B69454A93420AD97B6A43F468
:103D480080437B6206E0BB681B687A6A13437B6228
:103D580000E000BF7B6803F01003BA6902FA03F3BE
:103D68007A6A13437B62FB681B687A6ADA63FB68CA
:103D78001B6819687B6803F010034FF4804202FA4D
:103D880003F3DA43FB681B680A401A60FB681B6888
:103D98001B687B627B6803F0100340F6FE7202FA30
:103DA80003F3DB437A6A13407B62BB68DB68BB6161
:103DB8007B6803F01003BA6902FA03F37A6A1343C3
:103DC8007B62FB681B687A6A1A60FB681B68196863
:103DD8007B6803F01003C02202FA03F3DA43FB689E
:103DE8001B680A401A60BB68DB689B0803F00F0376
:103DF800BB61BB681B699B081B0203F47063BA694B
:103E08001343BB61FB681B681A6E7B6803F01003E1
:103E180040F60F7101FA03F3DB4302EA03017B6802
:103E280003F01003BA699A40FB681B680A431A66D4
:103E3800FB6801221A71FB6800225A710023184698
:103E48002837BD4680BD00BF0068890900B4C40496
:103E580080B483B000AF786000BF0C37BD465DF812
:103E6800047B704780B584B000AF78607B68002B16
:103E780001D101238DE07B681B681A46474B9A42A3
:103E88000FD87B681B681A46454B1344454AA2FB6A
:103E980003231B099A007B685A647B68424A1A64A8
:103EA8000EE07B681B681A46404B13443D4AA2FB50
:103EB80003231B099A007B685A647B683C4A1A648E
:103EC8007B68022283F825207B681B681B68FB60DF
:103ED800FB6823F4FF4323F07003FB607B689A6858
:103EE8007B68DB681A437B681B691A437B685B69DC
:103EF8001A437B689B691A437B68DB691A437B68B2
:103F08001B6A1343FA681343FB607B681B68FA68F3
:103F18001A60786800F076FA7B689B68B3F5804F82
:103F280002D17B6800225A607B685A687B689B6C68
:103F3800D2B21A607B68DB6C7A68126D5A607B6853
:103F48005B68002B10D07B685B68042B0CD8786802
:103F580000F096FA7B685B6D00221A607B689B6DA7
:103F68007A68D26D5A6008E07B6800225A657B68DF
:103F780000229A657B680022DA657B680022DA6392
:103F88007B68012283F825207B68002283F824209F
:103F9800002318461037BD4680BD00BF0704024005
:103FA800F8FFFDBFCDCCCCCC00000240F8FBFDBF34
:103FB8000004024080B586B000AFF860B9607A604E
:103FC8003B600023FB75FB6893F82430012B01D17B
:103FD800022366E0FB68012283F82420FB6893F83B
:103FE8002530DBB2012B55D1FB68022283F825204E
:103FF800FB680022DA63FB681B681A68FB681B68A9
:1040080022F001021A603B687A68B968F86800F023
:10401800BBF9FB681B6B002B08D0FB681B681A6890
:10402800FB681B6842F00E021A600FE0FB681B6811
:104038001A68FB681B6822F004021A60FB681B6898
:104048001A68FB681B6842F00A021A60FB689B6CDE
:104058001B6803F48033002B07D0FB689B6C1A683D
:10406800FB689B6C42F480721A60FB685B6D002BE6
:1040780007D0FB685B6D1A68FB685B6D42F4807261
:104088001A60FB681B681A68FB681B6842F001022B
:104098001A6005E0FB68002283F824200223FB75E0
:1040A800FB7D18461837BD4680BD80B485B000AF8B
:1040B80078600023FB737B6893F82530DBB2022B12
:1040C80005D07B680422DA630123FB7337E07B6841
:1040D8001B681A687B681B6822F00E021A607B68EE
:1040E8009B6C1A687B689B6C22F480721A607B68F0
:1040F8001B681A687B681B6822F001021A607B68DB
:104108005B6C03F01F027B681B6C012101FA02F251
:104118005A607B68DB6C7A68126D5A607B685B6DED
:10412800002B0CD07B685B6D1A687B685B6D22F492
:1041380080721A607B689B6D7A68D26D5A607B6862
:10414800012283F825207B68002283F82420FB7B4A
:1041580018461437BD465DF8047B704780B584B0B7
:1041680000AF78600023FB737B6893F82530DBB2DF
:10417800022B0DD07B680422DA637B68012283F866
:1041880025207B68002283F824200123FB7347E065
:104198007B681B681A687B681B6822F00E021A602D
:1041A8007B681B681A687B681B6822F001021A602A
:1041B8007B689B6C1A687B689B6C22F480721A601F
:1041C8007B685B6C03F01F027B681B6C012101FAA2
:1041D80002F25A607B68DB6C7A68126D5A607B6801
:1041E8005B6D002B0CD07B685B6D1A687B685B6D20
:1041F80022F480721A607B689B6D7A68D26D5A606F
:104208007B68012283F825207B68002283F824201C
:104218007B689B6B002B03D07B689B6B7868984707
:10422800FB7B18461037BD4680BD80B584B000AF13
:1042380078607B681B6C1B68FB607B681B681B686D
:10424800BB607B685B6C03F01F0304229A40FB6829
:104258001340002B26D0BB6803F00403002B21D0A9
:104268007B681B681B6803F02003002B07D17B6861
:104278001B681A687B681B6822F004021A607B6856
:104288005B6C03F01F027B681B6C042101FA02F2CD
:104298005A607B681B6B002B71D07B681B6B78683E
:1042A80098476CE07B685B6C03F01F0302229A401E
:1042B800FB681340002B2ED0BB6803F00203002BD1
:1042C80029D07B681B681B6803F02003002B0BD1E7
:1042D8007B681B681A687B681B6822F00A021A60F0
:1042E8007B68012283F825207B685B6C03F01F0242
:1042F8007B681B6C022101FA02F25A607B6800227B
:1043080083F824207B68DB6A002B38D07B68DB6A63
:104318007868984733E07B685B6C03F01F030822DA
:104328009A40FB681340002B2AD0BB6803F00803AF
:10433800002B25D07B681B681A687B681B6822F0F5
:104348000E021A607B685B6C03F01F027B681B6CB3
:10435800012101FA02F25A607B680122DA637B6864
:10436800012283F825207B68002283F824207B68BB
:104378005B6B002B04D07B685B6B7868984700BF49
:1043880000BF1037BD4680BD80B485B000AFF8606F
:10439800B9607A603B60FB68DB6CFA68126D5A6042
:1043A800FB685B6D002B04D0FB689B6DFA68D26DCF
:1043B8005A60FB685B6C03F01F02FB681B6C0121F1
:1043C80001FA02F25A60FB681B683A685A60FB6897
:1043D8009B68102B08D1FB681B687A689A60FB6899
:1043E8001B68BA68DA6007E0FB681B68BA689A60FD
:1043F800FB681B687A68DA6000BF1437BD465DF851
:10440800047B704780B487B000AF78607B681B6816
:104418001A46164B9A4202D8154B7B6101E0154BA0
:104428007B617B693B617B681B68DBB2083B124A96
:10443800A2FB03231B09FB607B685B6C9B089A004B
:104448003B6913441A467B689A647B680B4ADA64B2
:10445800FB6803F01F0301229A407B681A6500BFBE
:104468001C37BD465DF8047B704700BF0704024057
:104478000008024020080240CDCCCCCC8008024085
:1044880080B485B000AF78607B685B68DBB2FB60A6
:10449800FA680B4B13449B001A467B685A657B6885
:1044A800084A9A65FB68013B03F01F0301229A4002
:1044B8007B68DA6500BF1437BD465DF8047B70473A
:1044C8003F8200104009024080B487B000AF786096
:1044D800396000237B615AE13B681A6801217B69D6
:1044E80001FA03F31340FB60FB68002B00F04C81DA
:1044F8003B685B68012B0BD03B685B68022B07D0DD
:104508003B685B68112B03D03B685B68122B30D18A
:104518007B689B683B617B695B00032202FA03F3BB
:10452800DB433A6913403B613B68DA687B695B00AF
:1045380002FA03F33A6913433B617B683A699A606C
:104548007B685B683B6101227B6902FA03F3DB430A
:104558003A6913403B613B685B681B0903F0010241
:104568007B6902FA03F33A6913433B617B683A6952
:104578005A607B68DB683B617B695B00032202FA57
:1045880003F3DB433A6913403B613B689A687B69F4
:104598005B0002FA03F33A6913433B617B683A69AB
:1045A800DA603B685B68022B03D03B685B68122BC0
:1045B80023D17B69DA087B68083253F822303B61E3
:1045C8007B6903F007039B000F2202FA03F3DB4326
:1045D8003A6913403B613B681A697B6903F007033A
:1045E8009B0002FA03F33A6913433B617B69DA08DB
:1045F8007B680832396943F822107B681B683B6185
:104608007B695B00032202FA03F3DB433A69134038
:104618003B613B685B6803F003027B695B0002FA5D
:1046280003F33A6913433B617B683A691A603B6854
:104638005B6803F08053002B00F0A6805B4B1B6E79
:104648005A4A43F001031366584B1B6E03F00103EB
:10465800BB60BB68564A7B699B08023352F823301B
:104668003B617B6903F003039B000F2202FA03F30B
:10467800DB433A6913403B617B68B3F1904F1FD02D
:104688007B684C4A934219D07B684B4A934213D0BB
:104698007B684A4A93420DD07B68494A934207D0C7
:1046A8007B68484A934201D105230AE0062308E0C3
:1046B800042306E0032304E0022302E0012300E0D0
:1046C80000237A6902F00302920093403A69134387
:1046D8003B6137497B699B0802333A6941F82320DB
:1046E800394B1B683B61FB68DB433A6913403B610C
:1046F8003B685B6803F48033002B03D03A69FB689E
:1047080013433B61304A3B6913602F4B5B683B6145
:10471800FB68DB433A6913403B613B685B6803F421
:104728000033002B03D03A69FB6813433B61264AE8
:104738003B695360244B9B683B61FB68DB433A69E8
:1047480013403B613B685B6803F48013002B03D084
:104758003A69FB6813433B611B4A3B6993601A4BF8
:10476800DB683B61FB68DB433A6913403B613B68AC
:104778005B6803F40013002B03D03A69FB6813430A
:104788003B61114A3B69D3607B6901337B613B68BC
:104798001A687B6922FA03F3002B7FF49DAE00BFF1
:1047A80000BF1C37BD465DF8047B7047001002400F
:1047B800000001400004004800080048000C0048C0
:1047C80000100048001400480004014080B483B081
:1047D80000AF78600B467B8013467B707B78002B9C
:1047E80003D07A887B689A6102E07A887B689A624B
:1047F80000BF0C37BD465DF8047B704780B485B0B8
:1048080000AF78607B68002B41D14B4B1B6803F4E9
:10481800C063B3F5806F31D1474BD3F88030464A37
:1048280023F48073C2F88030434B1B6823F4C063C1
:10483800414A43F400731360404B1B68322202FB69
:1048480003F33F4AA2FB03239B0C0133FB6002E006
:10485800FB68013BFB60384B5B6903F48063B3F58D
:10486800806F02D1FB68002BF2D1334B5B6903F4F4
:104878008063B3F5806F58D1032357E02E4BD3F8EC
:1048880080302D4A23F48073C2F880304DE07B6875
:10489800B3F5007F41D1284B1B6803F4C063B3F51F
:1048A800806F31D1244BD3F88030234A43F480738E
:1048B800C2F88030204B1B6823F4C0631E4A43F4BF
:1048C800007313601D4B1B68322202FB03F31C4A62
:1048D800A2FB03239B0C0133FB6002E0FB68013B56
:1048E800FB60154B5B6903F48063B3F5806F02D1FD
:1048F800FB68002BF2D1104B5B6903F48063B3F5BE
:10490800806F12D1032311E00B4BD3F880300A4A91
:1049180043F48073C2F8803007E0074B1B6823F428
:10492800C063054A43F480631360002318461437B4
:10493800BD465DF8047B7047007000400804002005
:1049480083DE1B4380B400AF054B9B68044A43F4E5
:104958008043936000BFBD465DF8047B704700BF8D
:104968000070004080B588B000AF78607B68002B8D
:1049780001D1012308E37B681B6803F00103002BC6
:1049880075D0A34B9B6803F00C03BB61A04BDB689D
:1049980003F003037B61BB690C2B02D17B69032BFA
:1049A80002D0BB69082B0BD1994B1B6803F4003369
:1049B800002B5BD07B685B68002B57D10123E3E2B7
:1049C8007B685B68B3F5803F06D1914B1B68904AC2
:1049D80043F4803313601DE07B685B68B3F5A02F58
:1049E8000CD18B4B1B688A4A43F480231360884B95
:1049F8001B68874A43F4803313600BE0844B1B68C1
:104A0800834A23F480331360814B1B68804A23F464
:104A1800802313607B685B68002B13D0FCF736FF9C
:104A2800386108E0FCF732FF02463B69D31A642B71
:104A380001D90323A8E2764B1B6803F40033002B4B
:104A4800F0D014E0FCF722FF386108E0FCF71EFF05
:104A580002463B69D31A642B01D9032394E26C4BB9
:104A68001B6803F40033002BF0D100E000BF7B6823
:104A78001B6803F00203002B75D0654B9B6803F09D
:104A88000C03BB61624BDB6803F003037B61BB690A
:104A98000C2B02D17B69022B02D0BB69042B1FD1DE
:104AA8005B4B1B6803F48063002B05D07B68DB68D5
:104AB800002B01D1012367E2554B5B6823F0FE42CE
:104AC8007B681B691B06524913434B60514B1B689B
:104AD8001846FCF78FFE0346002B43D0012353E210
:104AE8007B68DB68002B23D0494B1B68484A43F49A
:104AF80080731360FCF7CAFE386108E0FCF7C6FE55
:104B080002463B69D31A022B01D903233CE2404BEE
:104B18001B6803F48063002BF0D03D4B5B6823F0E7
:104B2800FE427B681B691B06394913434B601AE038
:104B3800374B1B68364A23F480731360FCF7A6FED4
:104B4800386108E0FCF7A2FE02463B69D31A022B43
:104B580001D9032318E22E4B1B6803F48063002B52
:104B6800F0D100E000BF7B681B6803F00803002B4E
:104B78003CD07B685B69002B1CD0254BD3F8943064
:104B8800234A43F00103C2F89430FCF77FFE3861F2
:104B980008E0FCF77BFE02463B69D31A022B01D9D9
:104BA8000323F1E11A4BD3F8943003F00203002BEE
:104BB800EFD01BE0164BD3F89430154A23F00103CD
:104BC800C2F89430FCF762FE386108E0FCF75EFE3C
:104BD80002463B69D31A022B01D90323D4E10C4BBB
:104BE800D3F8943003F00203002BEFD17B681B68E5
:104BF80003F00403002B00F0AB800023FB77044B89
:104C08009B6D03F08053002B06D1012305E000BF04
:104C1800001002400C0400200023002B0DD0AF4BE5
:104C28009B6DAE4A43F080539365AC4B9B6D03F08C
:104C38008053FB60FB680123FB77A94B1B6803F4D7
:104C48008073002B18D1A64B1B68A54A43F48073C8
:104C58001360FCF71BFE386108E0FCF717FE0246FC
:104C68003B69D31A022B01D903238DE19C4B1B68A6
:104C780003F48073002BF0D07B689B68012B08D16C
:104C8800964BD3F89030954A43F00103C2F8903020
:104C980024E07B689B68052B10D1904BD3F89030AB
:104CA8008E4A43F00403C2F890308C4BD3F890300E
:104CB8008A4A43F00103C2F890300FE0874BD3F8DB
:104CC8009030864A23F00103C2F89030834BD3F822
:104CD8009030824A23F00403C2F890307B689B68C6
:104CE800002B16D0FCF7D2FD38610AE0FCF7CEFDA8
:104CF80002463B69D31A41F28832934201D9032311
:104D080042E1764BD3F8903003F00203002BEDD04C
:104D180015E0FCF7BBFD38610AE0FCF7B7FD024679
:104D28003B69D31A41F28832934201D903232BE11C
:104D38006A4BD3F8903003F00203002BEDD1FB7FD0
:104D4800012B05D1654B9B6D644A23F08053936515
:104D58007B681B6803F02003002B3CD07B689B69B1
:104D6800002B1CD05D4BD3F898305C4A43F001030C
:104D7800C2F89830FCF78AFD386108E0FCF786FD38
:104D880002463B69D31A022B01D90323FCE0534B9B
:104D9800D3F8983003F00203002BEFD01BE04F4B01
:104DA800D3F898304D4A23F00103C2F89830FCF745
:104DB8006DFD386108E0FCF769FD02463B69D31ACE
:104DC800022B01D90323DFE0444BD3F8983003F0DA
:104DD8000203002BEFD17B68DB69002B00F0D38046
:104DE8003E4B9B6803F00C030C2B00F08D807B6816
:104DF800DB69022B5AD1394B1B68384A23F0807380
:104E08001360FCF743FD386108E0FCF73FFD0246FC
:104E18003B69D31A022B01D90323B5E02F4B1B683A
:104E280003F00073002BF0D12C4BDA682D4B1340A4
:104E38007A68116A7A68526A013A120111437A68EB
:104E4800926A120211437A68126B5208013A5205AB
:104E580011437A68526B5208013A520611437A6834
:104E6800D26AD2060A431D491343CB601B4B1B6809
:104E78001A4A43F080731360184BDB68174A43F0F3
:104E88008073D360FCF702FD386108E0FCF7FEFC94
:104E980002463B69D31A022B01D9032374E00F4B56
:104EA8001B6803F00073002BF0D06CE00B4B1B6801
:104EB8000A4A23F080731360084BDB68074A23F023
:104EC8000303D360054BDB68044A23F0887323F49B
:104ED8008033D360FCF7DAFC38610EE00010024042
:104EE800007000400C809F01FCF7D0FC02463B6933
:104EF800D31A022B01D9032346E0254B1B6803F084
:104F08000073002BF0D13EE07B68DB69012B01D1F7
:104F1800012339E01E4BDB687B617B6903F00302E8
:104F28007B681B6A9A422CD17B6903F0F0027B688C
:104F38005B6A013B1B019A4223D17B6903F4FE4261
:104F48007B689B6A1B029A421BD17B6903F07842FB
:104F58007B68DB6ADB069A4213D17B6903F4C002E3
:104F68007B681B6B5B08013B5B059A4209D17B6937
:104F780003F0C0627B685B6B5B08013B5B069A428F
:104F880001D0012300E0002318462037BD4680BD2C
:104F98000010024080B586B000AF78603960002309
:104FA8007B617B68002B01D101231EE1914B1B68BB
:104FB80003F00F033A689A4210D98E4B1B6823F00E
:104FC8000F028C493B6813430B608A4B1B6803F044
:104FD8000F033A689A4201D0012306E17B681B68F7
:104FE80003F00103002B73D07B685B68032B29D186
:104FF800814B1B6803F00073002B01D10123F4E0FF
:1050080000F09EF938613B697C4A93423FD97A4B5C
:105018009B6803F0F003002B09D07B681B6803F042
:105028000203002B33D07B689B68002B2FD1724B77
:105038009B6823F0F003704A43F080039360802359
:105048007B6124E07B685B68022B07D16A4B1B6895
:1050580003F40033002B09D10123C6E0664B1B681B
:1050680003F48063002B01D10123BEE000F0CEF8E9
:1050780038613B69614A934209D95F4B9B6823F0C9
:10508800F0035D4A43F08003936080237B615A4BB1
:105098009B6823F003027B685B68574913438B6066
:1050A800FCF7F4FBF8600AE0FCF7F0FB0246FB684B
:1050B800D31A41F28832934201D9032395E04E4B2B
:1050C8009B6803F00C027B685B689B009A42EBD1FB
:1050D8007B681B6803F00203002B23D07B681B68E6
:1050E80003F00403002B05D0434B9B68424A43F46A
:1050F800E06393607B681B6803F00803002B07D00C
:105108003D4B9B6823F47C533B4A43F4E063936034
:10511800394B9B6823F0F0027B689B683649134340
:105128008B6008E07B69802B05D1334B9B68324A42
:1051380023F0F00393602F4B1B6803F00F033A68CA
:105148009A421DD22B4B1B6823F00F0229493B685A
:1051580013430B60FCF79AFBF8600AE0FCF796FB38
:105168000246FB68D31A41F28832934201D90323DD
:105178003BE0204B1B6803F00F033A689A42EDD1DD
:105188007B681B6803F00403002B08D01A4B9B684C
:1051980023F4E0627B68DB68174913438B607B6804
:1051A8001B6803F00803002B09D0134B9B6823F4FA
:1051B80060527B681B69DB000F4913438B6000F06A
:1051C80025F802460C4B9B681B0903F00F030C499A
:1051D800CB5C03F01F0322FA03F30A4A13600A4B5D
:1051E8001B681846FCF706FB034618461837BD46E9
:1051F80080BD00BF002002400010024000B4C4047B
:10520800687D0008080400200C04002080B487B0E2
:1052180000AF2C4B9B6803F00C03042B02D12A4BE4
:105228003B6147E0274B9B6803F00C03082B02D136
:10523800264B3B613EE0234B9B6803F00C030C2B91
:1052480036D1204BDB6803F00303FB601D4BDB68A2
:105258001B0903F00F030133BB60FB68032B0CD160
:105268001A4ABB68B2FBF3F3164AD268120A02F074
:105278007F0202FB03F37B610CE0134ABB68B2FBBD
:10528800F3F3104AD268120A02F07F0202FB03F31A
:105298007B6100BF0B4BDB685B0E03F0030301333C
:1052A8005B007B607A697B68B2FBF3F33B6101E0EA
:1052B80000233B613B6918461C37BD465DF8047BFB
:1052C800704700BF001002400024F40000127A006A
:1052D80080B400AF034B1B681846BD465DF8047BDD
:1052E800704700BF0804002080B500AFFFF7F0FF4B
:1052F8000246064B9B681B0A03F007030449CB5C74
:1053080003F01F0322FA03F3184680BD0010024081
:10531800787D000880B500AFFFF7DAFF0246064B3C
:105328009B68DB0A03F007030449CB5C03F01F0307
:1053380022FA03F3184680BD00100240787D000869
:1053480080B487B000AF1E4BDB6803F003033B61FA
:105358001B4BDB681B0903F00F030133FB603B6940
:10536800032B0CD1174AFB68B2FBF3F3144AD2683B
:10537800120A02F07F0202FB03F37B610CE0124A7F
:10538800FB68B2FBF3F30E4AD268120A02F07F02FE
:1053980002FB03F37B6100BF094BDB685B0E03F084
:1053A800030301335B00BB607A69BB68B2FBF3F3AC
:1053B8007B607B6818461C37BD465DF8047B7047E8
:1053C8000010024000127A000024F40080B586B074
:1053D80000AF78600023FB740023BB747B681B68F4
:1053E80003F40023002B00F0988000237B74434BC8
:1053F8009B6D03F08053002B0DD1404B9B6D3F4AB2
:1054080043F0805393653D4B9B6D03F08053BB6025
:10541800BB6801237B743A4B1B68394A43F4807399
:105428001360FCF733FAF86009E0FCF72FFA02463C
:10543800FB68D31A022B02D90323FB7405E0304B17
:105448001B6803F48073002BEFD0FB7C002B59D131
:105458002A4BD3F8903003F440737B617B69002BAF
:105468001ED07B681B6D7A699A4219D0234BD3F8FA
:10547800903023F440737B61204BD3F890301F4A5F
:1054880043F48033C2F890301C4BD3F890301B4A59
:1054980023F48033C2F89030184A7B69C2F8903000
:1054A8007B6903F00103002B16D0FCF7EFF9F860D5
:1054B8000BE0FCF7EBF90246FB68D31A41F288329D
:1054C800934202D90323FB7406E00C4BD3F89030C7
:1054D80003F00203002BECD0FB7C002B0BD1074B15
:1054E800D3F8903023F440727B681B6D0349134353
:1054F800C1F8903008E0FB7CBB7405E00010024066
:1055080000700040FB7CBB747B7C012B05D1AF4B4A
:105518009B6DAE4A23F0805393657B681B6803F04C
:105528000103002B0AD0A94BD3F8883023F00302DB
:105538007B685B68A5491343C1F888307B681B68A2
:1055480003F00203002B0AD0A04BD3F8883023F0D5
:105558000C027B689B689D491343C1F888307B68BF
:105568001B6803F00403002B0AD0984BD3F888304B
:1055780023F030027B68DB6894491343C1F8883014
:105588007B681B6803F00803002B0AD08F4BD3F805
:10559800883023F0C0027B681B698C491343C1F82B
:1055A80088307B681B6803F01003002B0AD0874BF8
:1055B800D3F8883023F440727B685B6983491343CE
:1055C800C1F888307B681B6803F02003002B0AD0E1
:1055D8007E4BD3F8883023F440627B689B697B4913
:1055E8001343C1F888307B681B6803F04003002B25
:1055F8000AD0764BD3F8883023F440527B68DB69B5
:1056080072491343C1F888307B681B6803F0800334
:10561800002B0AD06D4BD3F8883023F440427B68C6
:105628001B6A6A491343C1F888307B681B6803F416
:105638008073002B0AD0654BD3F8883023F44032AE
:105648007B685B6A61491343C1F888307B681B68D3
:1056580003F40033002B0AD05C4BD3F89C3023F0C2
:1056680003027B689B6A59491343C1F89C307B68E5
:105678001B6803F40073002B0AD0544BD3F888300E
:1056880023F440227B68DB6A50491343C1F8883011
:105698007B681B6803F48063002B15D04B4BD3F851
:1056A800883023F440127B681B6B48491343C1F8C8
:1056B80088307B681B6BB3F5801F05D1434BDB68D3
:1056C800424A43F48013D3607B681B6803F4006389
:1056D800002B15D03D4BD3F8883023F440027B686B
:1056E8005B6B3A491343C1F888307B685B6BB3F551
:1056F800800F05D1354BDB68344A43F48013D360FF
:105708007B681B6803F48053002B15D02F4BD3F80C
:10571800883023F040727B689B6B2C491343C1F897
:1057280088307B689B6BB3F1807F05D1274BDB68A2
:10573800264A43F48013D3607B681B6803F4005344
:10574800002B15D0214BD3F8883023F040627B68BA
:10575800DB6B1E491343C1F888307B68DB6BB3F100
:10576800006F05D1194BDB68184A43F48013D360E6
:105778007B681B6803F48043002B15D0134BD3F8C8
:10578800883023F040627B681B6C10491343C1F8D2
:1057980088307B681B6CB3F1006F05D10B4BDB685D
:1057A8000A4A43F48013D3607B681B6803F4004300
:1057B800002B18D0054BD3F8883023F040527B6873
:1057C8005B6C02491343C1F8883001E000100240C5
:1057D8007B685B6CB3F1805F05D1214BDB68204AA5
:1057E80043F48033D3607B681B6803F48033002B59
:1057F80015D01B4BD3F8883023F040427B689B6C54
:1058080017491343C1F888307B689B6CB3F1804F0C
:1058180005D1134BDB68124A43F48033D3607B68AD
:105828001B6803F48023002B15D00D4BD3F89C3054
:1058380023F440127B68DB6C09491343C1F89C30A0
:105848007B68DB6CB3F5001F05D1054BDB68044AA8
:1058580043F48013D360BB7C18461837BD4680BD1F
:105868000010024080B582B000AF78607B68002BE2
:1058780001D1012349E07B6893F83D30DBB2002B6E
:1058880006D17B68002283F83C207868FBF7D8FDB6
:105898007B68022283F83D207B681A687B680433A2
:1058A8001946104600F05EFB7B68012283F8482009
:1058B8007B68012283F83E207B68012283F83F2021
:1058C8007B68012283F840207B68012283F841200D
:1058D8007B68012283F842207B68012283F84320F9
:1058E8007B68012283F844207B68012283F84520E5
:1058F8007B68012283F846207B68012283F84720D1
:105908007B68012283F83D20002318460837BD46EE
:1059180080BD000080B485B000AF78607B6893F8E4
:105928003D30DBB2012B01D0012354E07B68022219
:1059380083F83D207B681B68DA687B681B6842F047
:105948000102DA607B681B68264A934222D07B6892
:105958001B68B3F1804F1DD07B681B68224A9342B5
:1059680018D07B681B68214A934213D07B681B6858
:105978001F4A93420ED07B681B681E4A934209D087
:105988007B681B681C4A934204D07B681B681B4ACF
:10599800934215D17B681B689A68194B1340FB60CA
:1059A800FB68062B15D0FB68B3F5803F11D07B68E8
:1059B8001B681A687B681B6842F001021A6008E0DD
:1059C8007B681B681A687B681B6842F001021A60D2
:1059D80000E000BF002318461437BD465DF8047B7D
:1059E800704700BF002C0140000400400008004040
:1059F800000C0040003401400040014000500140CC
:105A08000700010080B582B000AF78607B681B6832
:105A18001B6903F00203022B22D17B681B68DB6839
:105A280003F00203022B1BD17B681B686FF0020294
:105A38001A617B6801221A777B681B689B6903F0EF
:105A48000303002B03D0786800F06EFA05E078684D
:105A580000F060FA786800F071FA7B6800221A7723
:105A68007B681B681B6903F00403042B22D17B6845
:105A78001B68DB6803F00403042B1BD17B681B68DD
:105A88006FF004021A617B6802221A777B681B6830
:105A98009B6903F44073002B03D0786800F044FA44
:105AA80005E0786800F036FA786800F047FA7B6815
:105AB80000221A777B681B681B6903F00803082B10
:105AC80022D17B681B68DB6803F00803082B1BD115
